{"abi":[{"type":"constructor","inputs":[],"stateMutability":"nonpayable"},{"type":"function","name":"deactivateSupply","inputs":[{"name":"_id","type":"uint256","internalType":"uint256"}],"outputs":[],"stateMutability":"nonpayable"},{"type":"function","name":"getAllSupplyIds","inputs":[],"outputs":[{"name":"","type":"uint256[]","internalType":"uint256[]"}],"stateMutability":"view"},{"type":"function","name":"getAllUsers","inputs":[],"outputs":[{"name":"","type":"address[]","internalType":"address[]"}],"stateMutability":"view"},{"type":"function","name":"getSupply","inputs":[{"name":"_id","type":"uint256","internalType":"uint256"}],"outputs":[{"name":"","type":"tuple","internalType":"struct SupplyChainTracker.SupplyItem","components":[{"name":"id","type":"uint256","internalType":"uint256"},{"name":"name","type":"string","internalType":"string"},{"name":"location","type":"string","internalType":"string"},{"name":"timestamp","type":"uint256","internalType":"uint256"},{"name":"registeredBy","type":"address","internalType":"address"},{"name":"isActive","type":"bool","internalType":"bool"}]}],"stateMutability":"view"},{"type":"function","name":"getTotalSupplies","inputs":[],"outputs":[{"name":"","type":"uint256","internalType":"uint256"}],"stateMutability":"view"},{"type":"function","name":"getTotalUsers","inputs":[],"outputs":[{"name":"","type":"uint256","internalType":"uint256"}],"stateMutability":"view"},{"type":"function","name":"getUser","inputs":[{"name":"_userAddress","type":"address","internalType":"address"}],"outputs":[{"name":"","type":"tuple","internalType":"struct SupplyChainTracker.User","components":[{"name":"id","type":"uint256","internalType":"uint256"},{"name":"userAddress","type":"address","internalType":"address"},{"name":"role","type":"string","internalType":"string"},{"name":"status","type":"uint8","internalType":"enum SupplyChainTracker.UserStatus"}]}],"stateMutability":"view"},{"type":"function","name":"getUserStatus","inputs":[{"name":"_userAddress","type":"address","internalType":"address"}],"outputs":[{"name":"","type":"uint8","internalType":"enum SupplyChainTracker.UserStatus"}],"stateMutability":"view"},{"type":"function","name":"isUserApproved","inputs":[{"name":"_userAddress","type":"address","internalType":"address"}],"outputs":[{"name":"","type":"bool","internalType":"bool"}],"stateMutability":"view"},{"type":"function","name":"owner","inputs":[],"outputs":[{"name":"","type":"address","internalType":"address"}],"stateMutability":"view"},{"type":"function","name":"registerAdmin","inputs":[{"name":"_adminAddress","type":"address","internalType":"address"}],"outputs":[{"name":"","type":"uint256","internalType":"uint256"}],"stateMutability":"nonpayable"},{"type":"function","name":"registerSupply","inputs":[{"name":"_name","type":"string","internalType":"string"},{"name":"_location","type":"string","internalType":"string"}],"outputs":[{"name":"","type":"uint256","internalType":"uint256"}],"stateMutability":"nonpayable"},{"type":"function","name":"registerUser","inputs":[{"name":"_role","type":"string","internalType":"string"}],"outputs":[{"name":"","type":"uint256","internalType":"uint256"}],"stateMutability":"nonpayable"},{"type":"function","name":"supplies","inputs":[{"name":"","type":"uint256","internalType":"uint256"}],"outputs":[{"name":"id","type":"uint256","internalType":"uint256"},{"name":"name","type":"string","internalType":"string"},{"name":"location","type":"string","internalType":"string"},{"name":"timestamp","type":"uint256","internalType":"uint256"},{"name":"registeredBy","type":"address","internalType":"address"},{"name":"isActive","type":"bool","internalType":"bool"}],"stateMutability":"view"},{"type":"function","name":"supplyIds","inputs":[{"name":"","type":"uint256","internalType":"uint256"}],"outputs":[{"name":"","type":"uint256","internalType":"uint256"}],"stateMutability":"view"},{"type":"function","name":"totalSupplies","inputs":[],"outputs":[{"name":"","type":"uint256","internalType":"uint256"}],"stateMutability":"view"},{"type":"function","name":"totalUsers","inputs":[],"outputs":[{"name":"","type":"uint256","internalType":"uint256"}],"stateMutability":"view"},{"type":"function","name":"updateSupplyLocation","inputs":[{"name":"_id","type":"uint256","internalType":"uint256"},{"name":"_newLocation","type":"string","internalType":"string"}],"outputs":[],"stateMutability":"nonpayable"},{"type":"function","name":"updateUserStatus","inputs":[{"name":"_userAddress","type":"address","internalType":"address"},{"name":"_newStatus","type":"uint8","internalType":"enum SupplyChainTracker.UserStatus"}],"outputs":[],"stateMutability":"nonpayable"},{"type":"function","name":"userAddresses","inputs":[{"name":"","type":"uint256","internalType":"uint256"}],"outputs":[{"name":"","type":"address","internalType":"address"}],"stateMutability":"view"},{"type":"function","name":"users","inputs":[{"name":"","type":"address","internalType":"address"}],"outputs":[{"name":"id","type":"uint256","internalType":"uint256"},{"name":"userAddress","type":"address","internalType":"address"},{"name":"role","type":"string","internalType":"string"},{"name":"status","type":"uint8","internalType":"enum SupplyChainTracker.UserStatus"}],"stateMutability":"view"},{"type":"function","name":"validRoles","inputs":[{"name":"","type":"string","internalType":"string"}],"outputs":[{"name":"","type":"bool","internalType":"bool"}],"stateMutability":"view"},{"type":"event","name":"SupplyDeactivated","inputs":[{"name":"id","type":"uint256","indexed":true,"internalType":"uint256"}],"anonymous":false},{"type":"event","name":"SupplyRegistered","inputs":[{"name":"id","type":"uint256","indexed":true,"internalType":"uint256"},{"name":"name","type":"string","indexed":false,"internalType":"string"},{"name":"registeredBy","type":"address","indexed":true,"internalType":"address"}],"anonymous":false},{"type":"event","name":"SupplyUpdated","inputs":[{"name":"id","type":"uint256","indexed":true,"internalType":"uint256"},{"name":"newLocation","type":"string","indexed":false,"internalType":"string"}],"anonymous":false},{"type":"event","name":"UserRegistered","inputs":[{"name":"id","type":"uint256","indexed":true,"internalType":"uint256"},{"name":"userAddress","type":"address","indexed":true,"internalType":"address"},{"name":"role","type":"string","indexed":false,"internalType":"string"},{"name":"status","type":"uint8","indexed":false,"internalType":"enum SupplyChainTracker.UserStatus"}],"anonymous":false},{"type":"event","name":"UserStatusUpdated","inputs":[{"name":"id","type":"uint256","indexed":true,"internalType":"uint256"},{"name":"userAddress","type":"address","indexed":true,"internalType":"address"},{"name":"newStatus","type":"uint8","indexed":false,"internalType":"enum SupplyChainTracker.UserStatus"}],"anonymous":false}],"bytecode":{"object":"0x608060405234801561000f575f5ffd5b50335f5f6101000a81548173ffffffffffffffffffffffffffffffffffffffff021916908373ffffffffffffffffffffffffffffffffffffffff1602179055505f6001819055505f6002819055506001600560405161006d906101ba565b90815260200160405180910390205f6101000a81548160ff021916908315150217905550600160056040516100a190610218565b90815260200160405180910390205f6101000a81548160ff021916908315150217905550600160056040516100d590610276565b90815260200160405180910390205f6101000a81548160ff02191690831515021790555060016005604051610109906102d4565b90815260200160405180910390205f6101000a81548160ff0219169083151502179055506001600560405161013d90610332565b90815260200160405180910390205f6101000a81548160ff021916908315150217905550610346565b5f81905092915050565b7f50726f64756365720000000000000000000000000000000000000000000000005f82015250565b5f6101a4600883610166565b91506101af82610170565b600882019050919050565b5f6101c482610198565b9150819050919050565b7f466163746f7279000000000000000000000000000000000000000000000000005f82015250565b5f610202600783610166565b915061020d826101ce565b600782019050919050565b5f610222826101f6565b9150819050919050565b7f52657461696c65720000000000000000000000000000000000000000000000005f82015250565b5f610260600883610166565b915061026b8261022c565b600882019050919050565b5f61028082610254565b9150819050919050565b7f436f6e73756d65720000000000000000000000000000000000000000000000005f82015250565b5f6102be600883610166565b91506102c98261028a565b600882019050919050565b5f6102de826102b2565b9150819050919050565b7f41646d696e0000000000000000000000000000000000000000000000000000005f82015250565b5f61031c600583610166565b9150610327826102e8565b600582019050919050565b5f61033c82610310565b9150819050919050565b613074806103535f395ff3fe608060405234801561000f575f5ffd5b5060043610610140575f3560e01c8063a386e8d6116100b6578063c38c58131161007a578063c38c5813146103b6578063d068cdc5146103e6578063e2842d7914610404578063ea0d5dcd14610422578063f77ee79d14610452578063f8f91a2e1461048257610140565b8063a386e8d61461030d578063a6d213661461032b578063a87430ba14610349578063bff1f9e11461037c578063c1ff7e671461039a57610140565b80636f77926b116101085780636f77926b14610225578063704f1b94146102555780638da5cb5b1461028557806390c1db65146102a3578063931f0751146102d35780639be572f6146102ef57610140565b806326ecb0871461014457806326f1a1fd14610174578063502c9bd5146101a9578063529d6ccf146101d957806354bcf4b414610209575b5f5ffd5b61015e60048036038101906101599190612018565b6104b2565b60405161016b9190612079565b60405180910390f35b61018e600480360381019061018991906120c5565b6104e7565b6040516101a09695949392919061219e565b60405180910390f35b6101c360048036038101906101be91906120c5565b610657565b6040516101d0919061220b565b60405180910390f35b6101f360048036038101906101ee919061224e565b610692565b6040516102009190612079565b60405180910390f35b610223600480360381019061021e9190612279565b61075d565b005b61023f600480360381019061023a919061224e565b610924565b60405161024c919061240c565b60405180910390f35b61026f600480360381019061026a9190612018565b610b24565b60405161027c919061242c565b60405180910390f35b61028d610e88565b60405161029a919061220b565b60405180910390f35b6102bd60048036038101906102b891906120c5565b610eac565b6040516102ca919061242c565b60405180910390f35b6102ed60048036038101906102e89190612468565b610ecc565b005b6102f7611186565b604051610304919061242c565b60405180910390f35b61031561118f565b604051610322919061242c565b60405180910390f35b610333611198565b604051610340919061254e565b60405180910390f35b610363600480360381019061035e919061224e565b6111ee565b604051610373949392919061257d565b60405180910390f35b6103846112cb565b604051610391919061242c565b60405180910390f35b6103b460048036038101906103af91906120c5565b6112d1565b005b6103d060048036038101906103cb919061224e565b611496565b6040516103dd919061242c565b60405180910390f35b6103ee6117ce565b6040516103fb919061242c565b60405180910390f35b61040c6117d4565b604051610419919061266f565b60405180910390f35b61043c6004803603810190610437919061224e565b6118ed565b604051610449919061268f565b60405180910390f35b61046c600480360381019061046791906120c5565b6119c3565b6040516104799190612744565b60405180910390f35b61049c60048036038101906104979190612764565b611be6565b6040516104a9919061242c565b60405180910390f35b6005818051602081018201805184825260208301602085012081835280955050505050505f915054906101000a900460ff1681565b6004602052805f5260405f205f91509050805f01549080600101805461050c90612807565b80601f016020809104026020016040519081016040528092919081815260200182805461053890612807565b80156105835780601f1061055a57610100808354040283529160200191610583565b820191905f5260205f20905b81548152906001019060200180831161056657829003601f168201915b50505050509080600201805461059890612807565b80601f01602080910402602001604051908101604052809291908181526020018280546105c490612807565b801561060f5780601f106105e65761010080835404028352916020019161060f565b820191905f5260205f20905b8154815290600101906020018083116105f257829003601f168201915b505050505090806003015490806004015f9054906101000a900473ffffffffffffffffffffffffffffffffffffffff16908060040160149054906101000a900460ff16905086565b60068181548110610666575f80fd5b905f5260205f20015f915054906101000a900473ffffffffffffffffffffffffffffffffffffffff1681565b5f5f60035f8473ffffffffffffffffffffffffffffffffffffffff1673ffffffffffffffffffffffffffffffffffffffff1681526020019081526020015f205f0154036106e1575f9050610758565b600160038111156106f5576106f4612339565b5b60035f8473ffffffffffffffffffffffffffffffffffffffff1673ffffffffffffffffffffffffffffffffffffffff1681526020019081526020015f206003015f9054906101000a900460ff16600381111561075457610753612339565b5b1490505b919050565b6001600381111561077157610770612339565b5b60035f3373ffffffffffffffffffffffffffffffffffffffff1673ffffffffffffffffffffffffffffffffffffffff1681526020019081526020015f206003015f9054906101000a900460ff1660038111156107d0576107cf612339565b5b14610810576040517f08c379a000000000000000000000000000000000000000000000000000000000815260040161080790612881565b60405180910390fd5b5f60045f8481526020019081526020015f205f015403610865576040517f08c379a000000000000000000000000000000000000000000000000000000000815260040161085c906128e9565b60405180910390fd5b60045f8381526020019081526020015f2060040160149054906101000a900460ff166108c6576040517f08c379a00000000000000000000000000000000000000000000000000000000081526004016108bd90612951565b60405180910390fd5b8060045f8481526020019081526020015f2060020190816108e79190612b0f565b50817f0e505a5960b1166a7e7198c7b124fe01022babf8c8d10a2b1feb0cbd0d3f3488826040516109189190612bde565b60405180910390a25050565b61092c611e34565b5f60035f8473ffffffffffffffffffffffffffffffffffffffff1673ffffffffffffffffffffffffffffffffffffffff1681526020019081526020015f205f0154036109ad576040517f08c379a00000000000000000000000000000000000000000000000000000000081526004016109a490612c48565b60405180910390fd5b60035f8373ffffffffffffffffffffffffffffffffffffffff1673ffffffffffffffffffffffffffffffffffffffff1681526020019081526020015f206040518060800160405290815f8201548152602001600182015f9054906101000a900473ffffffffffffffffffffffffffffffffffffffff1673ffffffffffffffffffffffffffffffffffffffff1673ffffffffffffffffffffffffffffffffffffffff168152602001600282018054610a6390612807565b80601f0160208091040260200160405190810160405280929190818152602001828054610a8f90612807565b8015610ada5780601f10610ab157610100808354040283529160200191610ada565b820191905f5260205f20905b815481529060010190602001808311610abd57829003601f168201915b50505050508152602001600382015f9054906101000a900460ff166003811115610b0757610b06612339565b5b6003811115610b1957610b18612339565b5b815250509050919050565b5f5f60035f3373ffffffffffffffffffffffffffffffffffffffff1673ffffffffffffffffffffffffffffffffffffffff1681526020019081526020015f205f015414610ba6576040517f08c379a0000000000000000000000000000000000000000000000000000000008152600401610b9d90612cb0565b60405180910390fd5b600582604051610bb69190612d08565b90815260200160405180910390205f9054906101000a900460ff16610c10576040517f08c379a0000000000000000000000000000000000000000000000000000000008152600401610c0790612d68565b60405180910390fd5b6040518060400160405280600581526020017f41646d696e00000000000000000000000000000000000000000000000000000081525080519060200120828051906020012003610c95576040517f08c379a0000000000000000000000000000000000000000000000000000000008152600401610c8c90612dd0565b60405180910390fd5b60025f815480929190610ca790612e1b565b91905055505f600254905060405180608001604052808281526020013373ffffffffffffffffffffffffffffffffffffffff1681526020018481526020015f6003811115610cf857610cf7612339565b5b81525060035f3373ffffffffffffffffffffffffffffffffffffffff1673ffffffffffffffffffffffffffffffffffffffff1681526020019081526020015f205f820151815f01556020820151816001015f6101000a81548173ffffffffffffffffffffffffffffffffffffffff021916908373ffffffffffffffffffffffffffffffffffffffff1602179055506040820151816002019081610d9b9190612b0f565b506060820151816003015f6101000a81548160ff02191690836003811115610dc657610dc5612339565b5b0217905550905050600633908060018154018082558091505060019003905f5260205f20015f9091909190916101000a81548173ffffffffffffffffffffffffffffffffffffffff021916908373ffffffffffffffffffffffffffffffffffffffff1602179055503373ffffffffffffffffffffffffffffffffffffffff16817f96167b36edc953fbe4cbc87c522d066755dab854a4c17ee501641b0f283fb1f3855f604051610e77929190612e62565b60405180910390a380915050919050565b5f5f9054906101000a900473ffffffffffffffffffffffffffffffffffffffff1681565b60078181548110610ebb575f80fd5b905f5260205f20015f915090505481565b5f5f9054906101000a900473ffffffffffffffffffffffffffffffffffffffff1673ffffffffffffffffffffffffffffffffffffffff163373ffffffffffffffffffffffffffffffffffffffff1614610f5a576040517f08c379a0000000000000000000000000000000000000000000000000000000008152600401610f5190612eda565b60405180910390fd5b5f60035f8473ffffffffffffffffffffffffffffffffffffffff1673ffffffffffffffffffffffffffffffffffffffff1681526020019081526020015f205f015403610fdb576040517f08c379a0000000000000000000000000000000000000000000000000000000008152600401610fd290612c48565b60405180910390fd5b806003811115610fee57610fed612339565b5b60035f8473ffffffffffffffffffffffffffffffffffffffff1673ffffffffffffffffffffffffffffffffffffffff1681526020019081526020015f206003015f9054906101000a900460ff16600381111561104d5761104c612339565b5b0361108d576040517f08c379a000000000000000000000000000000000000000000000000000000000815260040161108490612f42565b60405180910390fd5b8060035f8473ffffffffffffffffffffffffffffffffffffffff1673ffffffffffffffffffffffffffffffffffffffff1681526020019081526020015f206003015f6101000a81548160ff021916908360038111156110ef576110ee612339565b5b02179055508173ffffffffffffffffffffffffffffffffffffffff1660035f8473ffffffffffffffffffffffffffffffffffffffff1673ffffffffffffffffffffffffffffffffffffffff1681526020019081526020015f205f01547f072083279fbff672c71f2d727a4380726cd2a679d64e4a3cfdc56c98b6af7bad8360405161117a919061268f565b60405180910390a35050565b5f600254905090565b5f600154905090565b606060078054806020026020016040519081016040528092919081815260200182805480156111e457602002820191905f5260205f20905b8154815260200190600101908083116111d0575b5050505050905090565b6003602052805f5260405f205f91509050805f015490806001015f9054906101000a900473ffffffffffffffffffffffffffffffffffffffff169080600201805461123890612807565b80601f016020809104026020016040519081016040528092919081815260200182805461126490612807565b80156112af5780601f10611286576101008083540402835291602001916112af565b820191905f5260205f20905b81548152906001019060200180831161129257829003601f168201915b505050505090806003015f9054906101000a900460ff16905084565b60025481565b600160038111156112e5576112e4612339565b5b60035f3373ffffffffffffffffffffffffffffffffffffffff1673ffffffffffffffffffffffffffffffffffffffff1681526020019081526020015f206003015f9054906101000a900460ff16600381111561134457611343612339565b5b14611384576040517f08c379a000000000000000000000000000000000000000000000000000000000815260040161137b90612881565b60405180910390fd5b5f60045f8381526020019081526020015f205f0154036113d9576040517f08c379a00000000000000000000000000000000000000000000000000000000081526004016113d0906128e9565b60405180910390fd5b60045f8281526020019081526020015f2060040160149054906101000a900460ff1661143a576040517f08c379a000000000000000000000000000000000000000000000000000000000815260040161143190612faa565b60405180910390fd5b5f60045f8381526020019081526020015f2060040160146101000a81548160ff021916908315150217905550807fbed13655d819111546f279bd5119ee715af450b86a5331382793c3ff17f0196560405160405180910390a250565b5f5f5f9054906101000a900473ffffffffffffffffffffffffffffffffffffffff1673ffffffffffffffffffffffffffffffffffffffff163373ffffffffffffffffffffffffffffffffffffffff1614611525576040517f08c379a000000000000000000000000000000000000000000000000000000000815260040161151c90612eda565b60405180910390fd5b5f60035f8473ffffffffffffffffffffffffffffffffffffffff1673ffffffffffffffffffffffffffffffffffffffff1681526020019081526020015f205f0154146115a6576040517f08c379a000000000000000000000000000000000000000000000000000000000815260040161159d90612cb0565b60405180910390fd5b60025f8154809291906115b890612e1b565b91905055505f600254905060405180608001604052808281526020018473ffffffffffffffffffffffffffffffffffffffff1681526020016040518060400160405280600581526020017f41646d696e00000000000000000000000000000000000000000000000000000081525081526020016001600381111561163f5761163e612339565b5b81525060035f8573ffffffffffffffffffffffffffffffffffffffff1673ffffffffffffffffffffffffffffffffffffffff1681526020019081526020015f205f820151815f01556020820151816001015f6101000a81548173ffffffffffffffffffffffffffffffffffffffff021916908373ffffffffffffffffffffffffffffffffffffffff16021790555060408201518160020190816116e29190612b0f565b506060820151816003015f6101000a81548160ff0219169083600381111561170d5761170c612339565b5b0217905550905050600683908060018154018082558091505060019003905f5260205f20015f9091909190916101000a81548173ffffffffffffffffffffffffffffffffffffffff021916908373ffffffffffffffffffffffffffffffffffffffff1602179055508273ffffffffffffffffffffffffffffffffffffffff16817f96167b36edc953fbe4cbc87c522d066755dab854a4c17ee501641b0f283fb1f360016040516117bd9190613012565b60405180910390a380915050919050565b60015481565b60605f5f9054906101000a900473ffffffffffffffffffffffffffffffffffffffff1673ffffffffffffffffffffffffffffffffffffffff163373ffffffffffffffffffffffffffffffffffffffff1614611864576040517f08c379a000000000000000000000000000000000000000000000000000000000815260040161185b90612eda565b60405180910390fd5b60068054806020026020016040519081016040528092919081815260200182805480156118e357602002820191905f5260205f20905b815f9054906101000a900473ffffffffffffffffffffffffffffffffffffffff1673ffffffffffffffffffffffffffffffffffffffff168152602001906001019080831161189a575b5050505050905090565b5f5f60035f8473ffffffffffffffffffffffffffffffffffffffff1673ffffffffffffffffffffffffffffffffffffffff1681526020019081526020015f205f01540361196f576040517f08c379a000000000000000000000000000000000000000000000000000000000815260040161196690612c48565b60405180910390fd5b60035f8373ffffffffffffffffffffffffffffffffffffffff1673ffffffffffffffffffffffffffffffffffffffff1681526020019081526020015f206003015f9054906101000a900460ff169050919050565b6119cb611e81565b5f60045f8481526020019081526020015f205f015403611a20576040517f08c379a0000000000000000000000000000000000000000000000000000000008152600401611a17906128e9565b60405180910390fd5b60045f8381526020019081526020015f206040518060c00160405290815f8201548152602001600182018054611a5590612807565b80601f0160208091040260200160405190810160405280929190818152602001828054611a8190612807565b8015611acc5780601f10611aa357610100808354040283529160200191611acc565b820191905f5260205f20905b815481529060010190602001808311611aaf57829003601f168201915b50505050508152602001600282018054611ae590612807565b80601f0160208091040260200160405190810160405280929190818152602001828054611b1190612807565b8015611b5c5780601f10611b3357610100808354040283529160200191611b5c565b820191905f5260205f20905b815481529060010190602001808311611b3f57829003601f168201915b5050505050815260200160038201548152602001600482015f9054906101000a900473ffffffffffffffffffffffffffffffffffffffff1673ffffffffffffffffffffffffffffffffffffffff1673ffffffffffffffffffffffffffffffffffffffff1681526020016004820160149054906101000a900460ff1615151515815250509050919050565b5f60016003811115611bfb57611bfa612339565b5b60035f3373ffffffffffffffffffffffffffffffffffffffff1673ffffffffffffffffffffffffffffffffffffffff1681526020019081526020015f206003015f9054906101000a900460ff166003811115611c5a57611c59612339565b5b14611c9a576040517f08c379a0000000000000000000000000000000000000000000000000000000008152600401611c9190612881565b60405180910390fd5b60015f815480929190611cac90612e1b565b91905055505f60015490506040518060c001604052808281526020018581526020018481526020014281526020013373ffffffffffffffffffffffffffffffffffffffff1681526020016001151581525060045f8381526020019081526020015f205f820151815f01556020820151816001019081611d2b9190612b0f565b506040820151816002019081611d419190612b0f565b50606082015181600301556080820151816004015f6101000a81548173ffffffffffffffffffffffffffffffffffffffff021916908373ffffffffffffffffffffffffffffffffffffffff16021790555060a08201518160040160146101000a81548160ff021916908315150217905550905050600781908060018154018082558091505060019003905f5260205f20015f90919091909150553373ffffffffffffffffffffffffffffffffffffffff16817f6c7d30112cd55bc328a0003a60c2f09f83a42a783c98007b409c6e99b41ae78e86604051611e229190612bde565b60405180910390a38091505092915050565b60405180608001604052805f81526020015f73ffffffffffffffffffffffffffffffffffffffff168152602001606081526020015f6003811115611e7b57611e7a612339565b5b81525090565b6040518060c001604052805f815260200160608152602001606081526020015f81526020015f73ffffffffffffffffffffffffffffffffffffffff1681526020015f151581525090565b5f604051905090565b5f5ffd5b5f5ffd5b5f5ffd5b5f5ffd5b5f601f19601f8301169050919050565b7f4e487b71000000000000000000000000000000000000000000000000000000005f52604160045260245ffd5b611f2a82611ee4565b810181811067ffffffffffffffff82111715611f4957611f48611ef4565b5b80604052505050565b5f611f5b611ecb565b9050611f678282611f21565b919050565b5f67ffffffffffffffff821115611f8657611f85611ef4565b5b611f8f82611ee4565b9050602081019050919050565b828183375f83830152505050565b5f611fbc611fb784611f6c565b611f52565b905082815260208101848484011115611fd857611fd7611ee0565b5b611fe3848285611f9c565b509392505050565b5f82601f830112611fff57611ffe611edc565b5b813561200f848260208601611faa565b91505092915050565b5f6020828403121561202d5761202c611ed4565b5b5f82013567ffffffffffffffff81111561204a57612049611ed8565b5b61205684828501611feb565b91505092915050565b5f8115159050919050565b6120738161205f565b82525050565b5f60208201905061208c5f83018461206a565b92915050565b5f819050919050565b6120a481612092565b81146120ae575f5ffd5b50565b5f813590506120bf8161209b565b92915050565b5f602082840312156120da576120d9611ed4565b5b5f6120e7848285016120b1565b91505092915050565b6120f981612092565b82525050565b5f81519050919050565b5f82825260208201905092915050565b8281835e5f83830152505050565b5f612131826120ff565b61213b8185612109565b935061214b818560208601612119565b61215481611ee4565b840191505092915050565b5f73ffffffffffffffffffffffffffffffffffffffff82169050919050565b5f6121888261215f565b9050919050565b6121988161217e565b82525050565b5f60c0820190506121b15f8301896120f0565b81810360208301526121c38188612127565b905081810360408301526121d78187612127565b90506121e660608301866120f0565b6121f3608083018561218f565b61220060a083018461206a565b979650505050505050565b5f60208201905061221e5f83018461218f565b92915050565b61222d8161217e565b8114612237575f5ffd5b50565b5f8135905061224881612224565b92915050565b5f6020828403121561226357612262611ed4565b5b5f6122708482850161223a565b91505092915050565b5f5f6040838503121561228f5761228e611ed4565b5b5f61229c858286016120b1565b925050602083013567ffffffffffffffff8111156122bd576122bc611ed8565b5b6122c985828601611feb565b9150509250929050565b6122dc81612092565b82525050565b6122eb8161217e565b82525050565b5f82825260208201905092915050565b5f61230b826120ff565b61231581856122f1565b9350612325818560208601612119565b61232e81611ee4565b840191505092915050565b7f4e487b71000000000000000000000000000000000000000000000000000000005f52602160045260245ffd5b6004811061237757612376612339565b5b50565b5f81905061238782612366565b919050565b5f6123968261237a565b9050919050565b6123a68161238c565b82525050565b5f608083015f8301516123c15f8601826122d3565b5060208301516123d460208601826122e2565b50604083015184820360408601526123ec8282612301565b9150506060830151612401606086018261239d565b508091505092915050565b5f6020820190508181035f83015261242481846123ac565b905092915050565b5f60208201905061243f5f8301846120f0565b92915050565b60048110612451575f5ffd5b50565b5f8135905061246281612445565b92915050565b5f5f6040838503121561247e5761247d611ed4565b5b5f61248b8582860161223a565b925050602061249c85828601612454565b9150509250929050565b5f81519050919050565b5f82825260208201905092915050565b5f819050602082019050919050565b5f6124da83836122d3565b60208301905092915050565b5f602082019050919050565b5f6124fc826124a6565b61250681856124b0565b9350612511836124c0565b805f5b8381101561254157815161252888826124cf565b9750612533836124e6565b925050600181019050612514565b5085935050505092915050565b5f6020820190508181035f83015261256681846124f2565b905092915050565b6125778161238c565b82525050565b5f6080820190506125905f8301876120f0565b61259d602083018661218f565b81810360408301526125af8185612127565b90506125be606083018461256e565b95945050505050565b5f81519050919050565b5f82825260208201905092915050565b5f819050602082019050919050565b5f6125fb83836122e2565b60208301905092915050565b5f602082019050919050565b5f61261d826125c7565b61262781856125d1565b9350612632836125e1565b805f5b8381101561266257815161264988826125f0565b975061265483612607565b925050600181019050612635565b5085935050505092915050565b5f6020820190508181035f8301526126878184612613565b905092915050565b5f6020820190506126a25f83018461256e565b92915050565b6126b18161205f565b82525050565b5f60c083015f8301516126cc5f8601826122d3565b50602083015184820360208601526126e48282612301565b915050604083015184820360408601526126fe8282612301565b915050606083015161271360608601826122d3565b50608083015161272660808601826122e2565b5060a083015161273960a08601826126a8565b508091505092915050565b5f6020820190508181035f83015261275c81846126b7565b905092915050565b5f5f6040838503121561277a57612779611ed4565b5b5f83013567ffffffffffffffff81111561279757612796611ed8565b5b6127a385828601611feb565b925050602083013567ffffffffffffffff8111156127c4576127c3611ed8565b5b6127d085828601611feb565b9150509250929050565b7f4e487b71000000000000000000000000000000000000000000000000000000005f52602260045260245ffd5b5f600282049050600182168061281e57607f821691505b602082108103612831576128306127da565b5b50919050565b7f55736572206e6f7420617070726f7665640000000000000000000000000000005f82015250565b5f61286b601183612109565b915061287682612837565b602082019050919050565b5f6020820190508181035f8301526128988161285f565b9050919050565b7f537570706c7920646f6573206e6f7420657869737400000000000000000000005f82015250565b5f6128d3601583612109565b91506128de8261289f565b602082019050919050565b5f6020820190508181035f830152612900816128c7565b9050919050565b7f537570706c79206973206e6f74206163746976650000000000000000000000005f82015250565b5f61293b601483612109565b915061294682612907565b602082019050919050565b5f6020820190508181035f8301526129688161292f565b9050919050565b5f819050815f5260205f209050919050565b5f6020601f8301049050919050565b5f82821b905092915050565b5f600883026129cb7fffffffffffffffffffffffffffffffffffffffffffffffffffffffffffffffff82612990565b6129d58683612990565b95508019841693508086168417925050509392505050565b5f819050919050565b5f612a10612a0b612a0684612092565b6129ed565b612092565b9050919050565b5f819050919050565b612a29836129f6565b612a3d612a3582612a17565b84845461299c565b825550505050565b5f5f905090565b612a54612a45565b612a5f818484612a20565b505050565b5b81811015612a8257612a775f82612a4c565b600181019050612a65565b5050565b601f821115612ac757612a988161296f565b612aa184612981565b81016020851015612ab0578190505b612ac4612abc85612981565b830182612a64565b50505b505050565b5f82821c905092915050565b5f612ae75f1984600802612acc565b1980831691505092915050565b5f612aff8383612ad8565b9150826002028217905092915050565b612b18826120ff565b67ffffffffffffffff811115612b3157612b30611ef4565b5b612b3b8254612807565b612b46828285612a86565b5f60209050601f831160018114612b77575f8415612b65578287015190505b612b6f8582612af4565b865550612bd6565b601f198416612b858661296f565b5f5b82811015612bac57848901518255600182019150602085019450602081019050612b87565b86831015612bc95784890151612bc5601f891682612ad8565b8355505b6001600288020188555050505b505050505050565b5f6020820190508181035f830152612bf68184612127565b905092915050565b7f5573657220646f6573206e6f74206578697374000000000000000000000000005f82015250565b5f612c32601383612109565b9150612c3d82612bfe565b602082019050919050565b5f6020820190508181035f830152612c5f81612c26565b9050919050565b7f5573657220616c726561647920726567697374657265640000000000000000005f82015250565b5f612c9a601783612109565b9150612ca582612c66565b602082019050919050565b5f6020820190508181035f830152612cc781612c8e565b9050919050565b5f81905092915050565b5f612ce2826120ff565b612cec8185612cce565b9350612cfc818560208601612119565b80840191505092915050565b5f612d138284612cd8565b915081905092915050565b7f496e76616c696420726f6c6500000000000000000000000000000000000000005f82015250565b5f612d52600c83612109565b9150612d5d82612d1e565b602082019050919050565b5f6020820190508181035f830152612d7f81612d46565b9050919050565b7f43616e6e6f742072656769737465722061732041646d696e00000000000000005f82015250565b5f612dba601883612109565b9150612dc582612d86565b602082019050919050565b5f6020820190508181035f830152612de781612dae565b9050919050565b7f4e487b71000000000000000000000000000000000000000000000000000000005f52601160045260245ffd5b5f612e2582612092565b91507fffffffffffffffffffffffffffffffffffffffffffffffffffffffffffffffff8203612e5757612e56612dee565b5b600182019050919050565b5f6040820190508181035f830152612e7a8185612127565b9050612e89602083018461256e565b9392505050565b7f4e6f7420617574686f72697a65640000000000000000000000000000000000005f82015250565b5f612ec4600e83612109565b9150612ecf82612e90565b602082019050919050565b5f6020820190508181035f830152612ef181612eb8565b9050919050565b7f53746174757320756e6368616e676564000000000000000000000000000000005f82015250565b5f612f2c601083612109565b9150612f3782612ef8565b602082019050919050565b5f6020820190508181035f830152612f5981612f20565b9050919050565b7f537570706c7920697320616c726561647920696e6163746976650000000000005f82015250565b5f612f94601a83612109565b9150612f9f82612f60565b602082019050919050565b5f6020820190508181035f830152612fc181612f88565b9050919050565b7f41646d696e0000000000000000000000000000000000000000000000000000005f82015250565b5f612ffc600583612109565b915061300782612fc8565b602082019050919050565b5f6040820190508181035f83015261302981612ff0565b9050613038602083018461256e565b9291505056fea264697066735822122087a34412acf0ac6ea099da0c836270a5991d000a818b8f2ecc40711eeee1092464736f6c634300081e0033","linkReferences":{}},"methodIdentifiers":{"deactivateSupply(uint256)":"c1ff7e67","getAllSupplyIds()":"a6d21366","getAllUsers()":"e2842d79","getSupply(uint256)":"f77ee79d","getTotalSupplies()":"a386e8d6","getTotalUsers()":"9be572f6","getUser(address)":"6f77926b","getUserStatus(address)":"ea0d5dcd","isUserApproved(address)":"529d6ccf","owner()":"8da5cb5b","registerAdmin(address)":"c38c5813","registerSupply(string,string)":"f8f91a2e","registerUser(string)":"704f1b94","supplies(uint256)":"26f1a1fd","supplyIds(uint256)":"90c1db65","totalSupplies()":"d068cdc5","totalUsers()":"bff1f9e1","updateSupplyLocation(uint256,string)":"54bcf4b4","updateUserStatus(address,uint8)":"931f0751","userAddresses(uint256)":"502c9bd5","users(address)":"a87430ba","validRoles(string)":"26ecb087"},"id":21}