{"abi":[{"type":"constructor","inputs":[],"stateMutability":"nonpayable"},{"type":"function","name":"acceptTransfer","inputs":[{"name":"_transferId","type":"uint256","internalType":"uint256"}],"outputs":[],"stateMutability":"nonpayable"},{"type":"function","name":"balances","inputs":[{"name":"","type":"uint256","internalType":"uint256"},{"name":"","type":"address","internalType":"address"}],"outputs":[{"name":"","type":"uint256","internalType":"uint256"}],"stateMutability":"view"},{"type":"function","name":"createProductToken","inputs":[{"name":"_metadata","type":"string","internalType":"string"},{"name":"_parentId","type":"uint256","internalType":"uint256"},{"name":"_amount","type":"uint256","internalType":"uint256"}],"outputs":[{"name":"","type":"uint256","internalType":"uint256"}],"stateMutability":"nonpayable"},{"type":"function","name":"createTransferRequest","inputs":[{"name":"_tokenId","type":"uint256","internalType":"uint256"},{"name":"_to","type":"address","internalType":"address"},{"name":"_amount","type":"uint256","internalType":"uint256"}],"outputs":[{"name":"","type":"uint256","internalType":"uint256"}],"stateMutability":"nonpayable"},{"type":"function","name":"getAllProductTokenIds","inputs":[],"outputs":[{"name":"","type":"uint256[]","internalType":"uint256[]"}],"stateMutability":"view"},{"type":"function","name":"getAllUsers","inputs":[],"outputs":[{"name":"","type":"address[]","internalType":"address[]"}],"stateMutability":"view"},{"type":"function","name":"getApprovedUsersByRole","inputs":[{"name":"_role","type":"string","internalType":"string"}],"outputs":[{"name":"","type":"address[]","internalType":"address[]"}],"stateMutability":"view"},{"type":"function","name":"getPendingTransfers","inputs":[{"name":"_address","type":"address","internalType":"address"}],"outputs":[{"name":"","type":"uint256[]","internalType":"uint256[]"}],"stateMutability":"view"},{"type":"function","name":"getProductToken","inputs":[{"name":"_tokenId","type":"uint256","internalType":"uint256"}],"outputs":[{"name":"","type":"tuple","internalType":"struct SupplyChainTracker.ProductToken","components":[{"name":"id","type":"uint256","internalType":"uint256"},{"name":"creator","type":"address","internalType":"address"},{"name":"metadata","type":"string","internalType":"string"},{"name":"parentId","type":"uint256","internalType":"uint256"},{"name":"timestamp","type":"uint256","internalType":"uint256"},{"name":"isActive","type":"bool","internalType":"bool"}]}],"stateMutability":"view"},{"type":"function","name":"getTokenBalance","inputs":[{"name":"_tokenId","type":"uint256","internalType":"uint256"},{"name":"_address","type":"address","internalType":"address"}],"outputs":[{"name":"","type":"uint256","internalType":"uint256"}],"stateMutability":"view"},{"type":"function","name":"getTokenTotalSupply","inputs":[{"name":"_tokenId","type":"uint256","internalType":"uint256"}],"outputs":[{"name":"","type":"uint256","internalType":"uint256"}],"stateMutability":"view"},{"type":"function","name":"getTokenTransactionHistory","inputs":[{"name":"_tokenId","type":"uint256","internalType":"uint256"}],"outputs":[{"name":"","type":"uint256[]","internalType":"uint256[]"}],"stateMutability":"view"},{"type":"function","name":"getTotalProductTokens","inputs":[],"outputs":[{"name":"","type":"uint256","internalType":"uint256"}],"stateMutability":"view"},{"type":"function","name":"getTotalTransfers","inputs":[],"outputs":[{"name":"","type":"uint256","internalType":"uint256"}],"stateMutability":"view"},{"type":"function","name":"getTotalUsers","inputs":[],"outputs":[{"name":"","type":"uint256","internalType":"uint256"}],"stateMutability":"view"},{"type":"function","name":"getTransfer","inputs":[{"name":"_transferId","type":"uint256","internalType":"uint256"}],"outputs":[{"name":"","type":"tuple","internalType":"struct SupplyChainTracker.Transfer","components":[{"name":"id","type":"uint256","internalType":"uint256"},{"name":"tokenId","type":"uint256","internalType":"uint256"},{"name":"from","type":"address","internalType":"address"},{"name":"to","type":"address","internalType":"address"},{"name":"amount","type":"uint256","internalType":"uint256"},{"name":"status","type":"uint8","internalType":"enum SupplyChainTracker.TransferStatus"},{"name":"requestTimestamp","type":"uint256","internalType":"uint256"},{"name":"responseTimestamp","type":"uint256","internalType":"uint256"}]}],"stateMutability":"view"},{"type":"function","name":"getUser","inputs":[{"name":"_userAddress","type":"address","internalType":"address"}],"outputs":[{"name":"","type":"tuple","internalType":"struct SupplyChainTracker.User","components":[{"name":"id","type":"uint256","internalType":"uint256"},{"name":"userAddress","type":"address","internalType":"address"},{"name":"role","type":"string","internalType":"string"},{"name":"status","type":"uint8","internalType":"enum SupplyChainTracker.UserStatus"}]}],"stateMutability":"view"},{"type":"function","name":"getUserStatus","inputs":[{"name":"_userAddress","type":"address","internalType":"address"}],"outputs":[{"name":"","type":"uint8","internalType":"enum SupplyChainTracker.UserStatus"}],"stateMutability":"view"},{"type":"function","name":"isUserApproved","inputs":[{"name":"_userAddress","type":"address","internalType":"address"}],"outputs":[{"name":"","type":"bool","internalType":"bool"}],"stateMutability":"view"},{"type":"function","name":"owner","inputs":[],"outputs":[{"name":"","type":"address","internalType":"address"}],"stateMutability":"view"},{"type":"function","name":"pendingTransfersByAddress","inputs":[{"name":"","type":"address","internalType":"address"},{"name":"","type":"uint256","internalType":"uint256"}],"outputs":[{"name":"","type":"uint256","internalType":"uint256"}],"stateMutability":"view"},{"type":"function","name":"productTokenIds","inputs":[{"name":"","type":"uint256","internalType":"uint256"}],"outputs":[{"name":"","type":"uint256","internalType":"uint256"}],"stateMutability":"view"},{"type":"function","name":"productTokens","inputs":[{"name":"","type":"uint256","internalType":"uint256"}],"outputs":[{"name":"id","type":"uint256","internalType":"uint256"},{"name":"creator","type":"address","internalType":"address"},{"name":"metadata","type":"string","internalType":"string"},{"name":"parentId","type":"uint256","internalType":"uint256"},{"name":"timestamp","type":"uint256","internalType":"uint256"},{"name":"isActive","type":"bool","internalType":"bool"}],"stateMutability":"view"},{"type":"function","name":"registerAdmin","inputs":[{"name":"_adminAddress","type":"address","internalType":"address"}],"outputs":[{"name":"","type":"uint256","internalType":"uint256"}],"stateMutability":"nonpayable"},{"type":"function","name":"registerUser","inputs":[{"name":"_role","type":"string","internalType":"string"}],"outputs":[{"name":"","type":"uint256","internalType":"uint256"}],"stateMutability":"nonpayable"},{"type":"function","name":"rejectTransfer","inputs":[{"name":"_transferId","type":"uint256","internalType":"uint256"}],"outputs":[],"stateMutability":"nonpayable"},{"type":"function","name":"tokenTotalSupply","inputs":[{"name":"","type":"uint256","internalType":"uint256"}],"outputs":[{"name":"","type":"uint256","internalType":"uint256"}],"stateMutability":"view"},{"type":"function","name":"tokenTransactionHistory","inputs":[{"name":"","type":"uint256","internalType":"uint256"},{"name":"","type":"uint256","internalType":"uint256"}],"outputs":[{"name":"","type":"uint256","internalType":"uint256"}],"stateMutability":"view"},{"type":"function","name":"totalProductTokens","inputs":[],"outputs":[{"name":"","type":"uint256","internalType":"uint256"}],"stateMutability":"view"},{"type":"function","name":"totalTransfers","inputs":[],"outputs":[{"name":"","type":"uint256","internalType":"uint256"}],"stateMutability":"view"},{"type":"function","name":"totalUsers","inputs":[],"outputs":[{"name":"","type":"uint256","internalType":"uint256"}],"stateMutability":"view"},{"type":"function","name":"transferIds","inputs":[{"name":"","type":"uint256","internalType":"uint256"}],"outputs":[{"name":"","type":"uint256","internalType":"uint256"}],"stateMutability":"view"},{"type":"function","name":"transfers","inputs":[{"name":"","type":"uint256","internalType":"uint256"}],"outputs":[{"name":"id","type":"uint256","internalType":"uint256"},{"name":"tokenId","type":"uint256","internalType":"uint256"},{"name":"from","type":"address","internalType":"address"},{"name":"to","type":"address","internalType":"address"},{"name":"amount","type":"uint256","internalType":"uint256"},{"name":"status","type":"uint8","internalType":"enum SupplyChainTracker.TransferStatus"},{"name":"requestTimestamp","type":"uint256","internalType":"uint256"},{"name":"responseTimestamp","type":"uint256","internalType":"uint256"}],"stateMutability":"view"},{"type":"function","name":"updateUserStatus","inputs":[{"name":"_userAddress","type":"address","internalType":"address"},{"name":"_newStatus","type":"uint8","internalType":"enum SupplyChainTracker.UserStatus"}],"outputs":[],"stateMutability":"nonpayable"},{"type":"function","name":"userAddresses","inputs":[{"name":"","type":"uint256","internalType":"uint256"}],"outputs":[{"name":"","type":"address","internalType":"address"}],"stateMutability":"view"},{"type":"function","name":"users","inputs":[{"name":"","type":"address","internalType":"address"}],"outputs":[{"name":"id","type":"uint256","internalType":"uint256"},{"name":"userAddress","type":"address","internalType":"address"},{"name":"role","type":"string","internalType":"string"},{"name":"status","type":"uint8","internalType":"enum SupplyChainTracker.UserStatus"}],"stateMutability":"view"},{"type":"function","name":"validRoles","inputs":[{"name":"","type":"string","internalType":"string"}],"outputs":[{"name":"","type":"bool","internalType":"bool"}],"stateMutability":"view"},{"type":"event","name":"ProductTokenCreated","inputs":[{"name":"tokenId","type":"uint256","indexed":true,"internalType":"uint256"},{"name":"creator","type":"address","indexed":true,"internalType":"address"},{"name":"metadata","type":"string","indexed":false,"internalType":"string"},{"name":"parentId","type":"uint256","indexed":false,"internalType":"uint256"}],"anonymous":false},{"type":"event","name":"TransferAccepted","inputs":[{"name":"transferId","type":"uint256","indexed":true,"internalType":"uint256"},{"name":"tokenId","type":"uint256","indexed":true,"internalType":"uint256"},{"name":"from","type":"address","indexed":true,"internalType":"address"},{"name":"to","type":"address","indexed":false,"internalType":"address"},{"name":"amount","type":"uint256","indexed":false,"internalType":"uint256"}],"anonymous":false},{"type":"event","name":"TransferRejected","inputs":[{"name":"transferId","type":"uint256","indexed":true,"internalType":"uint256"},{"name":"tokenId","type":"uint256","indexed":true,"internalType":"uint256"},{"name":"from","type":"address","indexed":true,"internalType":"address"},{"name":"to","type":"address","indexed":false,"internalType":"address"},{"name":"amount","type":"uint256","indexed":false,"internalType":"uint256"}],"anonymous":false},{"type":"event","name":"TransferRequestCreated","inputs":[{"name":"transferId","type":"uint256","indexed":true,"internalType":"uint256"},{"name":"tokenId","type":"uint256","indexed":true,"internalType":"uint256"},{"name":"from","type":"address","indexed":true,"internalType":"address"},{"name":"to","type":"address","indexed":false,"internalType":"address"},{"name":"amount","type":"uint256","indexed":false,"internalType":"uint256"}],"anonymous":false},{"type":"event","name":"UserRegistered","inputs":[{"name":"id","type":"uint256","indexed":true,"internalType":"uint256"},{"name":"userAddress","type":"address","indexed":true,"internalType":"address"},{"name":"role","type":"string","indexed":false,"internalType":"string"},{"name":"status","type":"uint8","indexed":false,"internalType":"enum SupplyChainTracker.UserStatus"}],"anonymous":false},{"type":"event","name":"UserStatusUpdated","inputs":[{"name":"id","type":"uint256","indexed":true,"internalType":"uint256"},{"name":"userAddress","type":"address","indexed":true,"internalType":"address"},{"name":"newStatus","type":"uint8","indexed":false,"internalType":"enum SupplyChainTracker.UserStatus"}],"anonymous":false}],"bytecode":{"object":"0x608060405234801561000f575f5ffd5b50335f5f6101000a81548173ffffffffffffffffffffffffffffffffffffffff021916908373ffffffffffffffffffffffffffffffffffffffff1602179055505f6001819055505f6002819055505f60038190555060016006604051610074906101c1565b90815260200160405180910390205f6101000a81548160ff021916908315150217905550600160066040516100a89061021f565b90815260200160405180910390205f6101000a81548160ff021916908315150217905550600160066040516100dc9061027d565b90815260200160405180910390205f6101000a81548160ff02191690831515021790555060016006604051610110906102db565b90815260200160405180910390205f6101000a81548160ff0219169083151502179055506001600660405161014490610339565b90815260200160405180910390205f6101000a81548160ff02191690831515021790555061034d565b5f81905092915050565b7f50726f64756365720000000000000000000000000000000000000000000000005f82015250565b5f6101ab60088361016d565b91506101b682610177565b600882019050919050565b5f6101cb8261019f565b9150819050919050565b7f466163746f7279000000000000000000000000000000000000000000000000005f82015250565b5f61020960078361016d565b9150610214826101d5565b600782019050919050565b5f610229826101fd565b9150819050919050565b7f52657461696c65720000000000000000000000000000000000000000000000005f82015250565b5f61026760088361016d565b915061027282610233565b600882019050919050565b5f6102878261025b565b9150819050919050565b7f436f6e73756d65720000000000000000000000000000000000000000000000005f82015250565b5f6102c560088361016d565b91506102d082610291565b600882019050919050565b5f6102e5826102b9565b9150819050919050565b7f41646d696e0000000000000000000000000000000000000000000000000000005f82015250565b5f61032360058361016d565b915061032e826102ef565b600582019050919050565b5f61034382610317565b9150819050919050565b61512d8061035a5f395ff3fe608060405234801561000f575f5ffd5b5060043610610224575f3560e01c80638446a1721161012e578063c38c5813116100b6578063e2842d791161007a578063e2842d791461076b578063ea0d5dcd14610789578063ef57e2d2146107b9578063f20370c1146107e9578063f2c77eb01461081957610224565b8063c38c581314610676578063cadddbad146106a6578063cc55ae69146106d6578063cc86baad14610706578063de4cbf891461073657610224565b80639377d711116100fd5780639377d711146105a05780639be572f6146105d7578063a87430ba146105f5578063bff1f9e114610628578063c16fe9071461064657610224565b80638446a172146105185780638da5cb5b146105485780638f9d287e14610566578063931f07511461058457610224565b806341025e7b116101b15780636468e317116101805780636468e317146104285780636f77926b14610458578063704f1b941461048857806372b393c3146104b85780637b731d85146104e857610224565b806341025e7b1461037a578063502c9bd514610398578063512de5d9146103c8578063529d6ccf146103f857610224565b80631f320331116101f85780631f320331146102b057806326ecb087146102e0578063274fae7c14610310578063376f383d1461032c5780633bf477201461035c57610224565b806224f694146102285780630aefa9971461024657806312effc3214610264578063132dfba314610280575b5f5ffd5b610230610849565b60405161023d91906136f9565b60405180910390f35b61024e610852565b60405161025b91906136f9565b60405180910390f35b61027e6004803603810190610279919061374d565b61085b565b005b61029a600480360381019061029591906138b4565b610b21565b6040516102a791906139e2565b60405180910390f35b6102ca60048036038101906102c59190613a2c565b61101f565b6040516102d791906136f9565b60405180910390f35b6102fa60048036038101906102f591906138b4565b61103f565b6040516103079190613a84565b60405180910390f35b61032a6004803603810190610325919061374d565b611074565b005b61034660048036038101906103419190613a9d565b611373565b6040516103539190613b7f565b60405180910390f35b610364611406565b60405161037191906136f9565b60405180910390f35b61038261140c565b60405161038f9190613b7f565b60405180910390f35b6103b260048036038101906103ad919061374d565b611462565b6040516103bf9190613bae565b60405180910390f35b6103e260048036038101906103dd919061374d565b61149d565b6040516103ef91906136f9565b60405180910390f35b610412600480360381019061040d9190613a9d565b6114bd565b60405161041f9190613a84565b60405180910390f35b610442600480360381019061043d919061374d565b611588565b60405161044f91906136f9565b60405180910390f35b610472600480360381019061046d9190613a9d565b61159d565b60405161047f9190613cfa565b60405180910390f35b6104a2600480360381019061049d91906138b4565b61179d565b6040516104af91906136f9565b60405180910390f35b6104d260048036038101906104cd9190613d1a565b611b01565b6040516104df91906136f9565b60405180910390f35b61050260048036038101906104fd919061374d565b612225565b60405161050f91906136f9565b60405180910390f35b610532600480360381019061052d9190613d6a565b612245565b60405161053f91906136f9565b60405180910390f35b610550612270565b60405161055d9190613bae565b60405180910390f35b61056e612294565b60405161057b91906136f9565b60405180910390f35b61059e60048036038101906105999190613dcb565b61229a565b005b6105ba60048036038101906105b5919061374d565b612554565b6040516105ce989796959493929190613e4f565b60405180910390f35b6105df6125e2565b6040516105ec91906136f9565b60405180910390f35b61060f600480360381019061060a9190613a9d565b6125eb565b60405161061f9493929190613f22565b60405180910390f35b6106306126c8565b60405161063d91906136f9565b60405180910390f35b610660600480360381019061065b919061374d565b6126ce565b60405161066d919061401b565b60405180910390f35b610690600480360381019061068b9190613a9d565b612864565b60405161069d91906136f9565b60405180910390f35b6106c060048036038101906106bb9190614035565b612b9c565b6040516106cd91906136f9565b60405180910390f35b6106f060048036038101906106eb919061374d565b61305a565b6040516106fd9190613b7f565b60405180910390f35b610720600480360381019061071b919061374d565b6130c1565b60405161072d91906136f9565b60405180910390f35b610750600480360381019061074b919061374d565b6130db565b604051610762969594939291906140a1565b60405180910390f35b6107736131c4565b60405161078091906139e2565b60405180910390f35b6107a3600480360381019061079e9190613a9d565b6132dd565b6040516107b09190614107565b60405180910390f35b6107d360048036038101906107ce9190613a2c565b6133b3565b6040516107e091906136f9565b60405180910390f35b61080360048036038101906107fe9190614120565b613409565b60405161081091906136f9565b60405180910390f35b610833600480360381019061082e919061374d565b613434565b60405161084091906141f3565b60405180910390f35b5f600154905090565b5f600354905090565b5f60095f8381526020019081526020015f2090505f815f0154036108b4576040517f08c379a00000000000000000000000000000000000000000000000000000000081526004016108ab9061425d565b60405180910390fd5b3373ffffffffffffffffffffffffffffffffffffffff16816003015f9054906101000a900473ffffffffffffffffffffffffffffffffffffffff1673ffffffffffffffffffffffffffffffffffffffff1614610945576040517f08c379a000000000000000000000000000000000000000000000000000000000815260040161093c906142c5565b60405180910390fd5b5f600281111561095857610957613c27565b5b816005015f9054906101000a900460ff16600281111561097b5761097a613c27565b5b146109bb576040517f08c379a00000000000000000000000000000000000000000000000000000000081526004016109b29061432d565b60405180910390fd5b6002816005015f6101000a81548160ff021916908360028111156109e2576109e1613c27565b5b0217905550428160070181905550806004015460075f836001015481526020019081526020015f205f836002015f9054906101000a900473ffffffffffffffffffffffffffffffffffffffff1673ffffffffffffffffffffffffffffffffffffffff1673ffffffffffffffffffffffffffffffffffffffff1681526020019081526020015f205f828254610a769190614378565b92505081905550806002015f9054906101000a900473ffffffffffffffffffffffffffffffffffffffff1673ffffffffffffffffffffffffffffffffffffffff168160010154837f85ccd7cb88541c61058a6b1d48902bb75d5a05219a518779690b420cdcc62d44846003015f9054906101000a900473ffffffffffffffffffffffffffffffffffffffff168560040154604051610b159291906143ab565b60405180910390a45050565b606060016003811115610b3757610b36613c27565b5b60045f3373ffffffffffffffffffffffffffffffffffffffff1673ffffffffffffffffffffffffffffffffffffffff1681526020019081526020015f206003015f9054906101000a900460ff166003811115610b9657610b95613c27565b5b14610bd6576040517f08c379a0000000000000000000000000000000000000000000000000000000008152600401610bcd9061441c565b60405180910390fd5b600682604051610be69190614474565b90815260200160405180910390205f9054906101000a900460ff16610c40576040517f08c379a0000000000000000000000000000000000000000000000000000000008152600401610c37906144d4565b60405180910390fd5b5f5f90505f5f90505b600c80549050811015610ddc575f600c8281548110610c6b57610c6a6144f2565b5b905f5260205f20015f9054906101000a900473ffffffffffffffffffffffffffffffffffffffff1690505f60045f8373ffffffffffffffffffffffffffffffffffffffff1673ffffffffffffffffffffffffffffffffffffffff1681526020019081526020015f205f015414158015610d54575060016003811115610cf357610cf2613c27565b5b60045f8373ffffffffffffffffffffffffffffffffffffffff1673ffffffffffffffffffffffffffffffffffffffff1681526020019081526020015f206003015f9054906101000a900460ff166003811115610d5257610d51613c27565b5b145b8015610dba5750848051906020012060045f8373ffffffffffffffffffffffffffffffffffffffff1673ffffffffffffffffffffffffffffffffffffffff1681526020019081526020015f20600201604051610db09190614618565b6040518091039020145b15610dce578280610dca9061462e565b9350505b508080600101915050610c49565b505f8167ffffffffffffffff811115610df857610df7613790565b5b604051908082528060200260200182016040528015610e265781602001602082028036833780820191505090505b5090505f5f90505f5f90505b600c80549050811015611013575f600c8281548110610e5457610e536144f2565b5b905f5260205f20015f9054906101000a900473ffffffffffffffffffffffffffffffffffffffff1690505f60045f8373ffffffffffffffffffffffffffffffffffffffff1673ffffffffffffffffffffffffffffffffffffffff1681526020019081526020015f205f015414158015610f3d575060016003811115610edc57610edb613c27565b5b60045f8373ffffffffffffffffffffffffffffffffffffffff1673ffffffffffffffffffffffffffffffffffffffff1681526020019081526020015f206003015f9054906101000a900460ff166003811115610f3b57610f3a613c27565b5b145b8015610fa35750868051906020012060045f8373ffffffffffffffffffffffffffffffffffffffff1673ffffffffffffffffffffffffffffffffffffffff1681526020019081526020015f20600201604051610f999190614618565b6040518091039020145b156110055780848481518110610fbc57610fbb6144f2565b5b602002602001019073ffffffffffffffffffffffffffffffffffffffff16908173ffffffffffffffffffffffffffffffffffffffff168152505082806110019061462e565b9350505b508080600101915050610e32565b50819350505050919050565b6007602052815f5260405f20602052805f5260405f205f91509150505481565b6006818051602081018201805184825260208301602085012081835280955050505050505f915054906101000a900460ff1681565b5f60095f8381526020019081526020015f2090505f815f0154036110cd576040517f08c379a00000000000000000000000000000000000000000000000000000000081526004016110c49061425d565b60405180910390fd5b3373ffffffffffffffffffffffffffffffffffffffff16816003015f9054906101000a900473ffffffffffffffffffffffffffffffffffffffff1673ffffffffffffffffffffffffffffffffffffffff161461115e576040517f08c379a0000000000000000000000000000000000000000000000000000000008152600401611155906146bf565b60405180910390fd5b5f600281111561117157611170613c27565b5b816005015f9054906101000a900460ff16600281111561119457611193613c27565b5b146111d4576040517f08c379a00000000000000000000000000000000000000000000000000000000081526004016111cb9061432d565b60405180910390fd5b6001816005015f6101000a81548160ff021916908360028111156111fb576111fa613c27565b5b0217905550428160070181905550806004015460075f836001015481526020019081526020015f205f836003015f9054906101000a900473ffffffffffffffffffffffffffffffffffffffff1673ffffffffffffffffffffffffffffffffffffffff1673ffffffffffffffffffffffffffffffffffffffff1681526020019081526020015f205f82825461128f9190614378565b92505081905550600b5f826001015481526020019081526020015f2082908060018154018082558091505060019003905f5260205f20015f9091909190915055806002015f9054906101000a900473ffffffffffffffffffffffffffffffffffffffff1673ffffffffffffffffffffffffffffffffffffffff168160010154837fe6fedc71d59ee582818fd839c375b9bb46687d91d725e5fa247119831b888a3e846003015f9054906101000a900473ffffffffffffffffffffffffffffffffffffffff1685600401546040516113679291906143ab565b60405180910390a45050565b6060600a5f8373ffffffffffffffffffffffffffffffffffffffff1673ffffffffffffffffffffffffffffffffffffffff1681526020019081526020015f208054806020026020016040519081016040528092919081815260200182805480156113fa57602002820191905f5260205f20905b8154815260200190600101908083116113e6575b50505050509050919050565b60035481565b6060600d80548060200260200160405190810160405280929190818152602001828054801561145857602002820191905f5260205f20905b815481526020019060010190808311611444575b5050505050905090565b600c8181548110611471575f80fd5b905f5260205f20015f915054906101000a900473ffffffffffffffffffffffffffffffffffffffff1681565b600e81815481106114ac575f80fd5b905f5260205f20015f915090505481565b5f5f60045f8473ffffffffffffffffffffffffffffffffffffffff1673ffffffffffffffffffffffffffffffffffffffff1681526020019081526020015f205f01540361150c575f9050611583565b600160038111156115205761151f613c27565b5b60045f8473ffffffffffffffffffffffffffffffffffffffff1673ffffffffffffffffffffffffffffffffffffffff1681526020019081526020015f206003015f9054906101000a900460ff16600381111561157f5761157e613c27565b5b1490505b919050565b6008602052805f5260405f205f915090505481565b6115a56135d0565b5f60045f8473ffffffffffffffffffffffffffffffffffffffff1673ffffffffffffffffffffffffffffffffffffffff1681526020019081526020015f205f015403611626576040517f08c379a000000000000000000000000000000000000000000000000000000000815260040161161d90614727565b60405180910390fd5b60045f8373ffffffffffffffffffffffffffffffffffffffff1673ffffffffffffffffffffffffffffffffffffffff1681526020019081526020015f206040518060800160405290815f8201548152602001600182015f9054906101000a900473ffffffffffffffffffffffffffffffffffffffff1673ffffffffffffffffffffffffffffffffffffffff1673ffffffffffffffffffffffffffffffffffffffff1681526020016002820180546116dc9061454c565b80601f01602080910402602001604051908101604052809291908181526020018280546117089061454c565b80156117535780601f1061172a57610100808354040283529160200191611753565b820191905f5260205f20905b81548152906001019060200180831161173657829003601f168201915b50505050508152602001600382015f9054906101000a900460ff1660038111156117805761177f613c27565b5b600381111561179257611791613c27565b5b815250509050919050565b5f5f60045f3373ffffffffffffffffffffffffffffffffffffffff1673ffffffffffffffffffffffffffffffffffffffff1681526020019081526020015f205f01541461181f576040517f08c379a00000000000000000000000000000000000000000000000000000000081526004016118169061478f565b60405180910390fd5b60068260405161182f9190614474565b90815260200160405180910390205f9054906101000a900460ff16611889576040517f08c379a0000000000000000000000000000000000000000000000000000000008152600401611880906144d4565b60405180910390fd5b6040518060400160405280600581526020017f41646d696e0000000000000000000000000000000000000000000000000000008152508051906020012082805190602001200361190e576040517f08c379a0000000000000000000000000000000000000000000000000000000008152600401611905906147f7565b60405180910390fd5b60025f8154809291906119209061462e565b91905055505f600254905060405180608001604052808281526020013373ffffffffffffffffffffffffffffffffffffffff1681526020018481526020015f600381111561197157611970613c27565b5b81525060045f3373ffffffffffffffffffffffffffffffffffffffff1673ffffffffffffffffffffffffffffffffffffffff1681526020019081526020015f205f820151815f01556020820151816001015f6101000a81548173ffffffffffffffffffffffffffffffffffffffff021916908373ffffffffffffffffffffffffffffffffffffffff1602179055506040820151816002019081611a1491906149b5565b506060820151816003015f6101000a81548160ff02191690836003811115611a3f57611a3e613c27565b5b0217905550905050600c33908060018154018082558091505060019003905f5260205f20015f9091909190916101000a81548173ffffffffffffffffffffffffffffffffffffffff021916908373ffffffffffffffffffffffffffffffffffffffff1602179055503373ffffffffffffffffffffffffffffffffffffffff16817f96167b36edc953fbe4cbc87c522d066755dab854a4c17ee501641b0f283fb1f3855f604051611af0929190614a84565b60405180910390a380915050919050565b5f60016003811115611b1657611b15613c27565b5b60045f3373ffffffffffffffffffffffffffffffffffffffff1673ffffffffffffffffffffffffffffffffffffffff1681526020019081526020015f206003015f9054906101000a900460ff166003811115611b7557611b74613c27565b5b14611bb5576040517f08c379a0000000000000000000000000000000000000000000000000000000008152600401611bac9061441c565b60405180910390fd5b5f60055f8681526020019081526020015f205f015403611c0a576040517f08c379a0000000000000000000000000000000000000000000000000000000008152600401611c0190614afc565b60405180910390fd5b60055f8581526020019081526020015f206005015f9054906101000a900460ff16611c6a576040517f08c379a0000000000000000000000000000000000000000000000000000000008152600401611c6190614b64565b60405180910390fd5b5f73ffffffffffffffffffffffffffffffffffffffff168373ffffffffffffffffffffffffffffffffffffffff1603611cd8576040517f08c379a0000000000000000000000000000000000000000000000000000000008152600401611ccf90614bcc565b60405180910390fd5b3373ffffffffffffffffffffffffffffffffffffffff168373ffffffffffffffffffffffffffffffffffffffff1603611d46576040517f08c379a0000000000000000000000000000000000000000000000000000000008152600401611d3d90614c34565b60405180910390fd5b5f8211611d88576040517f08c379a0000000000000000000000000000000000000000000000000000000008152600401611d7f90614c9c565b60405180910390fd5b8160075f8681526020019081526020015f205f3373ffffffffffffffffffffffffffffffffffffffff1673ffffffffffffffffffffffffffffffffffffffff1681526020019081526020015f20541015611e17576040517f08c379a0000000000000000000000000000000000000000000000000000000008152600401611e0e90614d04565b60405180910390fd5b5f60045f8573ffffffffffffffffffffffffffffffffffffffff1673ffffffffffffffffffffffffffffffffffffffff1681526020019081526020015f205f015403611e98576040517f08c379a0000000000000000000000000000000000000000000000000000000008152600401611e8f90614d6c565b60405180910390fd5b60016003811115611eac57611eab613c27565b5b60045f8573ffffffffffffffffffffffffffffffffffffffff1673ffffffffffffffffffffffffffffffffffffffff1681526020019081526020015f206003015f9054906101000a900460ff166003811115611f0b57611f0a613c27565b5b14611f4b576040517f08c379a0000000000000000000000000000000000000000000000000000000008152600401611f4290614dd4565b60405180910390fd5b60035f815480929190611f5d9061462e565b91905055505f60035490506040518061010001604052808281526020018681526020013373ffffffffffffffffffffffffffffffffffffffff1681526020018573ffffffffffffffffffffffffffffffffffffffff1681526020018481526020015f6002811115611fd157611fd0613c27565b5b81526020014281526020015f81525060095f8381526020019081526020015f205f820151815f0155602082015181600101556040820151816002015f6101000a81548173ffffffffffffffffffffffffffffffffffffffff021916908373ffffffffffffffffffffffffffffffffffffffff1602179055506060820151816003015f6101000a81548173ffffffffffffffffffffffffffffffffffffffff021916908373ffffffffffffffffffffffffffffffffffffffff1602179055506080820151816004015560a0820151816005015f6101000a81548160ff021916908360028111156120c3576120c2613c27565b5b021790555060c0820151816006015560e082015181600701559050508260075f8781526020019081526020015f205f3373ffffffffffffffffffffffffffffffffffffffff1673ffffffffffffffffffffffffffffffffffffffff1681526020019081526020015f205f82825461213a9190614df2565b92505081905550600a5f8573ffffffffffffffffffffffffffffffffffffffff1673ffffffffffffffffffffffffffffffffffffffff1681526020019081526020015f2081908060018154018082558091505060019003905f5260205f20015f9091909190915055600e81908060018154018082558091505060019003905f5260205f20015f90919091909150553373ffffffffffffffffffffffffffffffffffffffff1685827f28db5329d873cf19a1df1e9a7d7ed4748e11d22d885260bdd21ab1d56768ccf387876040516122129291906143ab565b60405180910390a4809150509392505050565b600d8181548110612234575f80fd5b905f5260205f20015f915090505481565b600a602052815f5260405f20818154811061225e575f80fd5b905f5260205f20015f91509150505481565b5f5f9054906101000a900473ffffffffffffffffffffffffffffffffffffffff1681565b60015481565b5f5f9054906101000a900473ffffffffffffffffffffffffffffffffffffffff1673ffffffffffffffffffffffffffffffffffffffff163373ffffffffffffffffffffffffffffffffffffffff1614612328576040517f08c379a000000000000000000000000000000000000000000000000000000000815260040161231f90614e6f565b60405180910390fd5b5f60045f8473ffffffffffffffffffffffffffffffffffffffff1673ffffffffffffffffffffffffffffffffffffffff1681526020019081526020015f205f0154036123a9576040517f08c379a00000000000000000000000000000000000000000000000000000000081526004016123a090614727565b60405180910390fd5b8060038111156123bc576123bb613c27565b5b60045f8473ffffffffffffffffffffffffffffffffffffffff1673ffffffffffffffffffffffffffffffffffffffff1681526020019081526020015f206003015f9054906101000a900460ff16600381111561241b5761241a613c27565b5b0361245b576040517f08c379a000000000000000000000000000000000000000000000000000000000815260040161245290614ed7565b60405180910390fd5b8060045f8473ffffffffffffffffffffffffffffffffffffffff1673ffffffffffffffffffffffffffffffffffffffff1681526020019081526020015f206003015f6101000a81548160ff021916908360038111156124bd576124bc613c27565b5b02179055508173ffffffffffffffffffffffffffffffffffffffff1660045f8473ffffffffffffffffffffffffffffffffffffffff1673ffffffffffffffffffffffffffffffffffffffff1681526020019081526020015f205f01547f072083279fbff672c71f2d727a4380726cd2a679d64e4a3cfdc56c98b6af7bad836040516125489190614107565b60405180910390a35050565b6009602052805f5260405f205f91509050805f015490806001015490806002015f9054906101000a900473ffffffffffffffffffffffffffffffffffffffff1690806003015f9054906101000a900473ffffffffffffffffffffffffffffffffffffffff1690806004015490806005015f9054906101000a900460ff16908060060154908060070154905088565b5f600254905090565b6004602052805f5260405f205f91509050805f015490806001015f9054906101000a900473ffffffffffffffffffffffffffffffffffffffff16908060020180546126359061454c565b80601f01602080910402602001604051908101604052809291908181526020018280546126619061454c565b80156126ac5780601f10612683576101008083540402835291602001916126ac565b820191905f5260205f20905b81548152906001019060200180831161268f57829003601f168201915b505050505090806003015f9054906101000a900460ff16905084565b60025481565b6126d661361d565b5f60095f8481526020019081526020015f205f01540361272b576040517f08c379a00000000000000000000000000000000000000000000000000000000081526004016127229061425d565b60405180910390fd5b60095f8381526020019081526020015f20604051806101000160405290815f820154815260200160018201548152602001600282015f9054906101000a900473ffffffffffffffffffffffffffffffffffffffff1673ffffffffffffffffffffffffffffffffffffffff1673ffffffffffffffffffffffffffffffffffffffff168152602001600382015f9054906101000a900473ffffffffffffffffffffffffffffffffffffffff1673ffffffffffffffffffffffffffffffffffffffff1673ffffffffffffffffffffffffffffffffffffffff16815260200160048201548152602001600582015f9054906101000a900460ff16600281111561283357612832613c27565b5b600281111561284557612844613c27565b5b8152602001600682015481526020016007820154815250509050919050565b5f5f5f9054906101000a900473ffffffffffffffffffffffffffffffffffffffff1673ffffffffffffffffffffffffffffffffffffffff163373ffffffffffffffffffffffffffffffffffffffff16146128f3576040517f08c379a00000000000000000000000000000000000000000000000000000000081526004016128ea90614e6f565b60405180910390fd5b5f60045f8473ffffffffffffffffffffffffffffffffffffffff1673ffffffffffffffffffffffffffffffffffffffff1681526020019081526020015f205f015414612974576040517f08c379a000000000000000000000000000000000000000000000000000000000815260040161296b9061478f565b60405180910390fd5b60025f8154809291906129869061462e565b91905055505f600254905060405180608001604052808281526020018473ffffffffffffffffffffffffffffffffffffffff1681526020016040518060400160405280600581526020017f41646d696e000000000000000000000000000000000000000000000000000000815250815260200160016003811115612a0d57612a0c613c27565b5b81525060045f8573ffffffffffffffffffffffffffffffffffffffff1673ffffffffffffffffffffffffffffffffffffffff1681526020019081526020015f205f820151815f01556020820151816001015f6101000a81548173ffffffffffffffffffffffffffffffffffffffff021916908373ffffffffffffffffffffffffffffffffffffffff1602179055506040820151816002019081612ab091906149b5565b506060820151816003015f6101000a81548160ff02191690836003811115612adb57612ada613c27565b5b0217905550905050600c83908060018154018082558091505060019003905f5260205f20015f9091909190916101000a81548173ffffffffffffffffffffffffffffffffffffffff021916908373ffffffffffffffffffffffffffffffffffffffff1602179055508273ffffffffffffffffffffffffffffffffffffffff16817f96167b36edc953fbe4cbc87c522d066755dab854a4c17ee501641b0f283fb1f36001604051612b8b9190614f3f565b60405180910390a380915050919050565b5f60016003811115612bb157612bb0613c27565b5b60045f3373ffffffffffffffffffffffffffffffffffffffff1673ffffffffffffffffffffffffffffffffffffffff1681526020019081526020015f206003015f9054906101000a900460ff166003811115612c1057612c0f613c27565b5b14612c50576040517f08c379a0000000000000000000000000000000000000000000000000000000008152600401612c479061441c565b60405180910390fd5b5f8211612c92576040517f08c379a0000000000000000000000000000000000000000000000000000000008152600401612c8990614c9c565b60405180910390fd5b5f831115612e41575f60055f8581526020019081526020015f205f015403612cef576040517f08c379a0000000000000000000000000000000000000000000000000000000008152600401612ce690614fb5565b60405180910390fd5b60055f8481526020019081526020015f206005015f9054906101000a900460ff16612d4f576040517f08c379a0000000000000000000000000000000000000000000000000000000008152600401612d469061501d565b60405180910390fd5b8160075f8581526020019081526020015f205f3373ffffffffffffffffffffffffffffffffffffffff1673ffffffffffffffffffffffffffffffffffffffff1681526020019081526020015f20541015612dde576040517f08c379a0000000000000000000000000000000000000000000000000000000008152600401612dd5906150ab565b60405180910390fd5b8160075f8581526020019081526020015f205f3373ffffffffffffffffffffffffffffffffffffffff1673ffffffffffffffffffffffffffffffffffffffff1681526020019081526020015f205f828254612e399190614df2565b925050819055505b60015f815480929190612e539061462e565b91905055505f60015490506040518060c001604052808281526020013373ffffffffffffffffffffffffffffffffffffffff1681526020018681526020018581526020014281526020016001151581525060055f8381526020019081526020015f205f820151815f01556020820151816001015f6101000a81548173ffffffffffffffffffffffffffffffffffffffff021916908373ffffffffffffffffffffffffffffffffffffffff1602179055506040820151816002019081612f1891906149b5565b50606082015181600301556080820151816004015560a0820151816005015f6101000a81548160ff0219169083151502179055509050508260075f8381526020019081526020015f205f3373ffffffffffffffffffffffffffffffffffffffff1673ffffffffffffffffffffffffffffffffffffffff1681526020019081526020015f205f828254612faa9190614378565b925050819055508260085f8381526020019081526020015f205f828254612fd19190614378565b92505081905550600d81908060018154018082558091505060019003905f5260205f20015f90919091909150553373ffffffffffffffffffffffffffffffffffffffff16817fd9ef815d6b9a43d2840f47ad6fec3377b6b3fb770b66c6782f417685212d60ea87876040516130479291906150c9565b60405180910390a3809150509392505050565b6060600b5f8381526020019081526020015f208054806020026020016040519081016040528092919081815260200182805480156130b557602002820191905f5260205f20905b8154815260200190600101908083116130a1575b50505050509050919050565b5f60085f8381526020019081526020015f20549050919050565b6005602052805f5260405f205f91509050805f015490806001015f9054906101000a900473ffffffffffffffffffffffffffffffffffffffff16908060020180546131259061454c565b80601f01602080910402602001604051908101604052809291908181526020018280546131519061454c565b801561319c5780601f106131735761010080835404028352916020019161319c565b820191905f5260205f20905b81548152906001019060200180831161317f57829003601f168201915b505050505090806003015490806004015490806005015f9054906101000a900460ff16905086565b60605f5f9054906101000a900473ffffffffffffffffffffffffffffffffffffffff1673ffffffffffffffffffffffffffffffffffffffff163373ffffffffffffffffffffffffffffffffffffffff1614613254576040517f08c379a000000000000000000000000000000000000000000000000000000000815260040161324b90614e6f565b60405180910390fd5b600c8054806020026020016040519081016040528092919081815260200182805480156132d357602002820191905f5260205f20905b815f9054906101000a900473ffffffffffffffffffffffffffffffffffffffff1673ffffffffffffffffffffffffffffffffffffffff168152602001906001019080831161328a575b5050505050905090565b5f5f60045f8473ffffffffffffffffffffffffffffffffffffffff1673ffffffffffffffffffffffffffffffffffffffff1681526020019081526020015f205f01540361335f576040517f08c379a000000000000000000000000000000000000000000000000000000000815260040161335690614727565b60405180910390fd5b60045f8373ffffffffffffffffffffffffffffffffffffffff1673ffffffffffffffffffffffffffffffffffffffff1681526020019081526020015f206003015f9054906101000a900460ff169050919050565b5f60075f8481526020019081526020015f205f8373ffffffffffffffffffffffffffffffffffffffff1673ffffffffffffffffffffffffffffffffffffffff1681526020019081526020015f2054905092915050565b600b602052815f5260405f208181548110613422575f80fd5b905f5260205f20015f91509150505481565b61343c613698565b5f60055f8481526020019081526020015f205f015403613491576040517f08c379a000000000000000000000000000000000000000000000000000000000815260040161348890614afc565b60405180910390fd5b60055f8381526020019081526020015f206040518060c00160405290815f8201548152602001600182015f9054906101000a900473ffffffffffffffffffffffffffffffffffffffff1673ffffffffffffffffffffffffffffffffffffffff1673ffffffffffffffffffffffffffffffffffffffff16815260200160028201805461351b9061454c565b80601f01602080910402602001604051908101604052809291908181526020018280546135479061454c565b80156135925780601f1061356957610100808354040283529160200191613592565b820191905f5260205f20905b81548152906001019060200180831161357557829003601f168201915b505050505081526020016003820154815260200160048201548152602001600582015f9054906101000a900460ff1615151515815250509050919050565b60405180608001604052805f81526020015f73ffffffffffffffffffffffffffffffffffffffff168152602001606081526020015f600381111561361757613616613c27565b5b81525090565b6040518061010001604052805f81526020015f81526020015f73ffffffffffffffffffffffffffffffffffffffff1681526020015f73ffffffffffffffffffffffffffffffffffffffff1681526020015f81526020015f600281111561368657613685613c27565b5b81526020015f81526020015f81525090565b6040518060c001604052805f81526020015f73ffffffffffffffffffffffffffffffffffffffff168152602001606081526020015f81526020015f81526020015f151581525090565b5f819050919050565b6136f3816136e1565b82525050565b5f60208201905061370c5f8301846136ea565b92915050565b5f604051905090565b5f5ffd5b5f5ffd5b61372c816136e1565b8114613736575f5ffd5b50565b5f8135905061374781613723565b92915050565b5f602082840312156137625761376161371b565b5b5f61376f84828501613739565b91505092915050565b5f5ffd5b5f5ffd5b5f601f19601f8301169050919050565b7f4e487b71000000000000000000000000000000000000000000000000000000005f52604160045260245ffd5b6137c682613780565b810181811067ffffffffffffffff821117156137e5576137e4613790565b5b80604052505050565b5f6137f7613712565b905061380382826137bd565b919050565b5f67ffffffffffffffff82111561382257613821613790565b5b61382b82613780565b9050602081019050919050565b828183375f83830152505050565b5f61385861385384613808565b6137ee565b9050828152602081018484840111156138745761387361377c565b5b61387f848285613838565b509392505050565b5f82601f83011261389b5761389a613778565b5b81356138ab848260208601613846565b91505092915050565b5f602082840312156138c9576138c861371b565b5b5f82013567ffffffffffffffff8111156138e6576138e561371f565b5b6138f284828501613887565b91505092915050565b5f81519050919050565b5f82825260208201905092915050565b5f819050602082019050919050565b5f73ffffffffffffffffffffffffffffffffffffffff82169050919050565b5f61394d82613924565b9050919050565b61395d81613943565b82525050565b5f61396e8383613954565b60208301905092915050565b5f602082019050919050565b5f613990826138fb565b61399a8185613905565b93506139a583613915565b805f5b838110156139d55781516139bc8882613963565b97506139c78361397a565b9250506001810190506139a8565b5085935050505092915050565b5f6020820190508181035f8301526139fa8184613986565b905092915050565b613a0b81613943565b8114613a15575f5ffd5b50565b5f81359050613a2681613a02565b92915050565b5f5f60408385031215613a4257613a4161371b565b5b5f613a4f85828601613739565b9250506020613a6085828601613a18565b9150509250929050565b5f8115159050919050565b613a7e81613a6a565b82525050565b5f602082019050613a975f830184613a75565b92915050565b5f60208284031215613ab257613ab161371b565b5b5f613abf84828501613a18565b91505092915050565b5f81519050919050565b5f82825260208201905092915050565b5f819050602082019050919050565b613afa816136e1565b82525050565b5f613b0b8383613af1565b60208301905092915050565b5f602082019050919050565b5f613b2d82613ac8565b613b378185613ad2565b9350613b4283613ae2565b805f5b83811015613b72578151613b598882613b00565b9750613b6483613b17565b925050600181019050613b45565b5085935050505092915050565b5f6020820190508181035f830152613b978184613b23565b905092915050565b613ba881613943565b82525050565b5f602082019050613bc15f830184613b9f565b92915050565b5f81519050919050565b5f82825260208201905092915050565b8281835e5f83830152505050565b5f613bf982613bc7565b613c038185613bd1565b9350613c13818560208601613be1565b613c1c81613780565b840191505092915050565b7f4e487b71000000000000000000000000000000000000000000000000000000005f52602160045260245ffd5b60048110613c6557613c64613c27565b5b50565b5f819050613c7582613c54565b919050565b5f613c8482613c68565b9050919050565b613c9481613c7a565b82525050565b5f608083015f830151613caf5f860182613af1565b506020830151613cc26020860182613954565b5060408301518482036040860152613cda8282613bef565b9150506060830151613cef6060860182613c8b565b508091505092915050565b5f6020820190508181035f830152613d128184613c9a565b905092915050565b5f5f5f60608486031215613d3157613d3061371b565b5b5f613d3e86828701613739565b9350506020613d4f86828701613a18565b9250506040613d6086828701613739565b9150509250925092565b5f5f60408385031215613d8057613d7f61371b565b5b5f613d8d85828601613a18565b9250506020613d9e85828601613739565b9150509250929050565b60048110613db4575f5ffd5b50565b5f81359050613dc581613da8565b92915050565b5f5f60408385031215613de157613de061371b565b5b5f613dee85828601613a18565b9250506020613dff85828601613db7565b9150509250929050565b60038110613e1a57613e19613c27565b5b50565b5f819050613e2a82613e09565b919050565b5f613e3982613e1d565b9050919050565b613e4981613e2f565b82525050565b5f61010082019050613e635f83018b6136ea565b613e70602083018a6136ea565b613e7d6040830189613b9f565b613e8a6060830188613b9f565b613e9760808301876136ea565b613ea460a0830186613e40565b613eb160c08301856136ea565b613ebe60e08301846136ea565b9998505050505050505050565b5f82825260208201905092915050565b5f613ee582613bc7565b613eef8185613ecb565b9350613eff818560208601613be1565b613f0881613780565b840191505092915050565b613f1c81613c7a565b82525050565b5f608082019050613f355f8301876136ea565b613f426020830186613b9f565b8181036040830152613f548185613edb565b9050613f636060830184613f13565b95945050505050565b613f7581613e2f565b82525050565b61010082015f820151613f905f850182613af1565b506020820151613fa36020850182613af1565b506040820151613fb66040850182613954565b506060820151613fc96060850182613954565b506080820151613fdc6080850182613af1565b5060a0820151613fef60a0850182613f6c565b5060c082015161400260c0850182613af1565b5060e082015161401560e0850182613af1565b50505050565b5f6101008201905061402f5f830184613f7b565b92915050565b5f5f5f6060848603121561404c5761404b61371b565b5b5f84013567ffffffffffffffff8111156140695761406861371f565b5b61407586828701613887565b935050602061408686828701613739565b925050604061409786828701613739565b9150509250925092565b5f60c0820190506140b45f8301896136ea565b6140c16020830188613b9f565b81810360408301526140d38187613edb565b90506140e260608301866136ea565b6140ef60808301856136ea565b6140fc60a0830184613a75565b979650505050505050565b5f60208201905061411a5f830184613f13565b92915050565b5f5f604083850312156141365761413561371b565b5b5f61414385828601613739565b925050602061415485828601613739565b9150509250929050565b61416781613a6a565b82525050565b5f60c083015f8301516141825f860182613af1565b5060208301516141956020860182613954565b50604083015184820360408601526141ad8282613bef565b91505060608301516141c26060860182613af1565b5060808301516141d56080860182613af1565b5060a08301516141e860a086018261415e565b508091505092915050565b5f6020820190508181035f83015261420b818461416d565b905092915050565b7f5472616e7366657220646f6573206e6f742065786973740000000000000000005f82015250565b5f614247601783613ecb565b915061425282614213565b602082019050919050565b5f6020820190508181035f8301526142748161423b565b9050919050565b7f4f6e6c792064657374696e6174696f6e2063616e2072656a65637400000000005f82015250565b5f6142af601b83613ecb565b91506142ba8261427b565b602082019050919050565b5f6020820190508181035f8301526142dc816142a3565b9050919050565b7f5472616e73666572206e6f742070656e64696e670000000000000000000000005f82015250565b5f614317601483613ecb565b9150614322826142e3565b602082019050919050565b5f6020820190508181035f8301526143448161430b565b9050919050565b7f4e487b71000000000000000000000000000000000000000000000000000000005f52601160045260245ffd5b5f614382826136e1565b915061438d836136e1565b92508282019050808211156143a5576143a461434b565b5b92915050565b5f6040820190506143be5f830185613b9f565b6143cb60208301846136ea565b9392505050565b7f55736572206e6f7420617070726f7665640000000000000000000000000000005f82015250565b5f614406601183613ecb565b9150614411826143d2565b602082019050919050565b5f6020820190508181035f830152614433816143fa565b9050919050565b5f81905092915050565b5f61444e82613bc7565b614458818561443a565b9350614468818560208601613be1565b80840191505092915050565b5f61447f8284614444565b915081905092915050565b7f496e76616c696420726f6c6500000000000000000000000000000000000000005f82015250565b5f6144be600c83613ecb565b91506144c98261448a565b602082019050919050565b5f6020820190508181035f8301526144eb816144b2565b9050919050565b7f4e487b71000000000000000000000000000000000000000000000000000000005f52603260045260245ffd5b7f4e487b71000000000000000000000000000000000000000000000000000000005f52602260045260245ffd5b5f600282049050600182168061456357607f821691505b6020821081036145765761457561451f565b5b50919050565b5f81905092915050565b5f819050815f5260205f209050919050565b5f81546145a48161454c565b6145ae818661457c565b9450600182165f81146145c857600181146145dd5761460f565b60ff198316865281151582028601935061460f565b6145e685614586565b5f5b83811015614607578154818901526001820191506020810190506145e8565b838801955050505b50505092915050565b5f6146238284614598565b915081905092915050565b5f614638826136e1565b91507fffffffffffffffffffffffffffffffffffffffffffffffffffffffffffffffff820361466a5761466961434b565b5b600182019050919050565b7f4f6e6c792064657374696e6174696f6e2063616e2061636365707400000000005f82015250565b5f6146a9601b83613ecb565b91506146b482614675565b602082019050919050565b5f6020820190508181035f8301526146d68161469d565b9050919050565b7f5573657220646f6573206e6f74206578697374000000000000000000000000005f82015250565b5f614711601383613ecb565b915061471c826146dd565b602082019050919050565b5f6020820190508181035f83015261473e81614705565b9050919050565b7f5573657220616c726561647920726567697374657265640000000000000000005f82015250565b5f614779601783613ecb565b915061478482614745565b602082019050919050565b5f6020820190508181035f8301526147a68161476d565b9050919050565b7f43616e6e6f742072656769737465722061732041646d696e00000000000000005f82015250565b5f6147e1601883613ecb565b91506147ec826147ad565b602082019050919050565b5f6020820190508181035f83015261480e816147d5565b9050919050565b5f819050815f5260205f209050919050565b5f6020601f8301049050919050565b5f82821b905092915050565b5f600883026148717fffffffffffffffffffffffffffffffffffffffffffffffffffffffffffffffff82614836565b61487b8683614836565b95508019841693508086168417925050509392505050565b5f819050919050565b5f6148b66148b16148ac846136e1565b614893565b6136e1565b9050919050565b5f819050919050565b6148cf8361489c565b6148e36148db826148bd565b848454614842565b825550505050565b5f5f905090565b6148fa6148eb565b6149058184846148c6565b505050565b5b818110156149285761491d5f826148f2565b60018101905061490b565b5050565b601f82111561496d5761493e81614815565b61494784614827565b81016020851015614956578190505b61496a61496285614827565b83018261490a565b50505b505050565b5f82821c905092915050565b5f61498d5f1984600802614972565b1980831691505092915050565b5f6149a5838361497e565b9150826002028217905092915050565b6149be82613bc7565b67ffffffffffffffff8111156149d7576149d6613790565b5b6149e1825461454c565b6149ec82828561492c565b5f60209050601f831160018114614a1d575f8415614a0b578287015190505b614a15858261499a565b865550614a7c565b601f198416614a2b86614815565b5f5b82811015614a5257848901518255600182019150602085019450602081019050614a2d565b86831015614a6f5784890151614a6b601f89168261497e565b8355505b6001600288020188555050505b505050505050565b5f6040820190508181035f830152614a9c8185613edb565b9050614aab6020830184613f13565b9392505050565b7f50726f6475637420746f6b656e20646f6573206e6f74206578697374000000005f82015250565b5f614ae6601c83613ecb565b9150614af182614ab2565b602082019050919050565b5f6020820190508181035f830152614b1381614ada565b9050919050565b7f50726f6475637420746f6b656e206973206e6f742061637469766500000000005f82015250565b5f614b4e601b83613ecb565b9150614b5982614b1a565b602082019050919050565b5f6020820190508181035f830152614b7b81614b42565b9050919050565b7f496e76616c69642064657374696e6174696f6e206164647265737300000000005f82015250565b5f614bb6601b83613ecb565b9150614bc182614b82565b602082019050919050565b5f6020820190508181035f830152614be381614baa565b9050919050565b7f43616e6e6f74207472616e7366657220746f20796f757273656c6600000000005f82015250565b5f614c1e601b83613ecb565b9150614c2982614bea565b602082019050919050565b5f6020820190508181035f830152614c4b81614c12565b9050919050565b7f416d6f756e74206d7573742062652067726561746572207468616e20300000005f82015250565b5f614c86601d83613ecb565b9150614c9182614c52565b602082019050919050565b5f6020820190508181035f830152614cb381614c7a565b9050919050565b7f496e73756666696369656e742062616c616e63650000000000000000000000005f82015250565b5f614cee601483613ecb565b9150614cf982614cba565b602082019050919050565b5f6020820190508181035f830152614d1b81614ce2565b9050919050565b7f44657374696e6174696f6e207573657220646f6573206e6f74206578697374005f82015250565b5f614d56601f83613ecb565b9150614d6182614d22565b602082019050919050565b5f6020820190508181035f830152614d8381614d4a565b9050919050565b7f44657374696e6174696f6e2075736572206e6f7420617070726f7665640000005f82015250565b5f614dbe601d83613ecb565b9150614dc982614d8a565b602082019050919050565b5f6020820190508181035f830152614deb81614db2565b9050919050565b5f614dfc826136e1565b9150614e07836136e1565b9250828203905081811115614e1f57614e1e61434b565b5b92915050565b7f4e6f7420617574686f72697a65640000000000000000000000000000000000005f82015250565b5f614e59600e83613ecb565b9150614e6482614e25565b602082019050919050565b5f6020820190508181035f830152614e8681614e4d565b9050919050565b7f53746174757320756e6368616e676564000000000000000000000000000000005f82015250565b5f614ec1601083613ecb565b9150614ecc82614e8d565b602082019050919050565b5f6020820190508181035f830152614eee81614eb5565b9050919050565b7f41646d696e0000000000000000000000000000000000000000000000000000005f82015250565b5f614f29600583613ecb565b9150614f3482614ef5565b602082019050919050565b5f6040820190508181035f830152614f5681614f1d565b9050614f656020830184613f13565b92915050565b7f506172656e7420746f6b656e20646f6573206e6f7420657869737400000000005f82015250565b5f614f9f601b83613ecb565b9150614faa82614f6b565b602082019050919050565b5f6020820190508181035f830152614fcc81614f93565b9050919050565b7f506172656e7420746f6b656e206973206e6f74206163746976650000000000005f82015250565b5f615007601a83613ecb565b915061501282614fd3565b602082019050919050565b5f6020820190508181035f83015261503481614ffb565b9050919050565b7f496e73756666696369656e7420706172656e7420746f6b656e2062616c616e635f8201527f6500000000000000000000000000000000000000000000000000000000000000602082015250565b5f615095602183613ecb565b91506150a08261503b565b604082019050919050565b5f6020820190508181035f8301526150c281615089565b9050919050565b5f6040820190508181035f8301526150e18185613edb565b90506150f060208301846136ea565b939250505056fea2646970667358221220dd4a12820632df97120c781d159c935dd8fa99ea329e40f8f6eb28a7fda1a78864736f6c634300081e0033","linkReferences":{}},"methodIdentifiers":{"acceptTransfer(uint256)":"274fae7c","balances(uint256,address)":"1f320331","createProductToken(string,uint256,uint256)":"cadddbad","createTransferRequest(uint256,address,uint256)":"72b393c3","getAllProductTokenIds()":"41025e7b","getAllUsers()":"e2842d79","getApprovedUsersByRole(string)":"132dfba3","getPendingTransfers(address)":"376f383d","getProductToken(uint256)":"f2c77eb0","getTokenBalance(uint256,address)":"ef57e2d2","getTokenTotalSupply(uint256)":"cc86baad","getTokenTransactionHistory(uint256)":"cc55ae69","getTotalProductTokens()":"0024f694","getTotalTransfers()":"0aefa997","getTotalUsers()":"9be572f6","getTransfer(uint256)":"c16fe907","getUser(address)":"6f77926b","getUserStatus(address)":"ea0d5dcd","isUserApproved(address)":"529d6ccf","owner()":"8da5cb5b","pendingTransfersByAddress(address,uint256)":"8446a172","productTokenIds(uint256)":"7b731d85","productTokens(uint256)":"de4cbf89","registerAdmin(address)":"c38c5813","registerUser(string)":"704f1b94","rejectTransfer(uint256)":"12effc32","tokenTotalSupply(uint256)":"6468e317","tokenTransactionHistory(uint256,uint256)":"f20370c1","totalProductTokens()":"8f9d287e","totalTransfers()":"3bf47720","totalUsers()":"bff1f9e1","transferIds(uint256)":"512de5d9","transfers(uint256)":"9377d711","updateUserStatus(address,uint8)":"931f0751","userAddresses(uint256)":"502c9bd5","users(address)":"a87430ba","validRoles(string)":"26ecb087"},"id":16}