{"abi":[{"type":"constructor","inputs":[],"stateMutability":"nonpayable"},{"type":"function","name":"MAX_AMOUNT","inputs":[],"outputs":[{"name":"","type":"uint256","internalType":"uint256"}],"stateMutability":"view"},{"type":"function","name":"MAX_METADATA_LENGTH","inputs":[],"outputs":[{"name":"","type":"uint256","internalType":"uint256"}],"stateMutability":"view"},{"type":"function","name":"MAX_TRANSFERS_PER_QUERY","inputs":[],"outputs":[{"name":"","type":"uint256","internalType":"uint256"}],"stateMutability":"view"},{"type":"function","name":"MAX_USERS_PER_QUERY","inputs":[],"outputs":[{"name":"","type":"uint256","internalType":"uint256"}],"stateMutability":"view"},{"type":"function","name":"acceptOwnership","inputs":[],"outputs":[],"stateMutability":"nonpayable"},{"type":"function","name":"acceptTransfer","inputs":[{"name":"_transferId","type":"uint256","internalType":"uint256"}],"outputs":[],"stateMutability":"nonpayable"},{"type":"function","name":"balances","inputs":[{"name":"","type":"uint256","internalType":"uint256"},{"name":"","type":"address","internalType":"address"}],"outputs":[{"name":"","type":"uint256","internalType":"uint256"}],"stateMutability":"view"},{"type":"function","name":"createProductToken","inputs":[{"name":"_metadata","type":"string","internalType":"string"},{"name":"_parentId","type":"uint256","internalType":"uint256"},{"name":"_amount","type":"uint256","internalType":"uint256"}],"outputs":[{"name":"","type":"uint256","internalType":"uint256"}],"stateMutability":"nonpayable"},{"type":"function","name":"createTransferRequest","inputs":[{"name":"_tokenId","type":"uint256","internalType":"uint256"},{"name":"_to","type":"address","internalType":"address"},{"name":"_amount","type":"uint256","internalType":"uint256"}],"outputs":[{"name":"","type":"uint256","internalType":"uint256"}],"stateMutability":"nonpayable"},{"type":"function","name":"getAllProductTokenIds","inputs":[],"outputs":[{"name":"","type":"uint256[]","internalType":"uint256[]"}],"stateMutability":"view"},{"type":"function","name":"getAllUsers","inputs":[],"outputs":[{"name":"","type":"address[]","internalType":"address[]"}],"stateMutability":"view"},{"type":"function","name":"getApprovedUsersByRole","inputs":[{"name":"_role","type":"string","internalType":"string"}],"outputs":[{"name":"","type":"address[]","internalType":"address[]"}],"stateMutability":"view"},{"type":"function","name":"getApprovedUsersByRole","inputs":[{"name":"_role","type":"string","internalType":"string"},{"name":"_offset","type":"uint256","internalType":"uint256"},{"name":"_limit","type":"uint256","internalType":"uint256"}],"outputs":[{"name":"addresses","type":"address[]","internalType":"address[]"},{"name":"totalCount","type":"uint256","internalType":"uint256"}],"stateMutability":"view"},{"type":"function","name":"getPendingTransfers","inputs":[{"name":"_address","type":"address","internalType":"address"}],"outputs":[{"name":"","type":"uint256[]","internalType":"uint256[]"}],"stateMutability":"view"},{"type":"function","name":"getPendingTransfers","inputs":[{"name":"_address","type":"address","internalType":"address"},{"name":"_offset","type":"uint256","internalType":"uint256"},{"name":"_limit","type":"uint256","internalType":"uint256"}],"outputs":[{"name":"resultTransferIds","type":"uint256[]","internalType":"uint256[]"},{"name":"totalCount","type":"uint256","internalType":"uint256"}],"stateMutability":"view"},{"type":"function","name":"getProductToken","inputs":[{"name":"_tokenId","type":"uint256","internalType":"uint256"}],"outputs":[{"name":"","type":"tuple","internalType":"struct SupplyChainTracker.ProductToken","components":[{"name":"id","type":"uint256","internalType":"uint256"},{"name":"creator","type":"address","internalType":"address"},{"name":"metadata","type":"string","internalType":"string"},{"name":"parentId","type":"uint256","internalType":"uint256"},{"name":"timestamp","type":"uint256","internalType":"uint256"},{"name":"isActive","type":"bool","internalType":"bool"}]}],"stateMutability":"view"},{"type":"function","name":"getTokenBalance","inputs":[{"name":"_tokenId","type":"uint256","internalType":"uint256"},{"name":"_address","type":"address","internalType":"address"}],"outputs":[{"name":"","type":"uint256","internalType":"uint256"}],"stateMutability":"view"},{"type":"function","name":"getTokenTotalSupply","inputs":[{"name":"_tokenId","type":"uint256","internalType":"uint256"}],"outputs":[{"name":"","type":"uint256","internalType":"uint256"}],"stateMutability":"view"},{"type":"function","name":"getTokenTransactionHistory","inputs":[{"name":"_tokenId","type":"uint256","internalType":"uint256"},{"name":"_offset","type":"uint256","internalType":"uint256"},{"name":"_limit","type":"uint256","internalType":"uint256"}],"outputs":[{"name":"resultTransferIds","type":"uint256[]","internalType":"uint256[]"},{"name":"totalCount","type":"uint256","internalType":"uint256"}],"stateMutability":"view"},{"type":"function","name":"getTokenTransactionHistory","inputs":[{"name":"_tokenId","type":"uint256","internalType":"uint256"}],"outputs":[{"name":"","type":"uint256[]","internalType":"uint256[]"}],"stateMutability":"view"},{"type":"function","name":"getTotalProductTokens","inputs":[],"outputs":[{"name":"","type":"uint256","internalType":"uint256"}],"stateMutability":"view"},{"type":"function","name":"getTotalTransfers","inputs":[],"outputs":[{"name":"","type":"uint256","internalType":"uint256"}],"stateMutability":"view"},{"type":"function","name":"getTotalUsers","inputs":[],"outputs":[{"name":"","type":"uint256","internalType":"uint256"}],"stateMutability":"view"},{"type":"function","name":"getTransfer","inputs":[{"name":"_transferId","type":"uint256","internalType":"uint256"}],"outputs":[{"name":"","type":"tuple","internalType":"struct SupplyChainTracker.Transfer","components":[{"name":"id","type":"uint256","internalType":"uint256"},{"name":"tokenId","type":"uint256","internalType":"uint256"},{"name":"from","type":"address","internalType":"address"},{"name":"to","type":"address","internalType":"address"},{"name":"amount","type":"uint256","internalType":"uint256"},{"name":"status","type":"uint8","internalType":"enum SupplyChainTracker.TransferStatus"},{"name":"requestTimestamp","type":"uint256","internalType":"uint256"},{"name":"responseTimestamp","type":"uint256","internalType":"uint256"}]}],"stateMutability":"view"},{"type":"function","name":"getUser","inputs":[{"name":"_userAddress","type":"address","internalType":"address"}],"outputs":[{"name":"","type":"tuple","internalType":"struct SupplyChainTracker.User","components":[{"name":"id","type":"uint256","internalType":"uint256"},{"name":"userAddress","type":"address","internalType":"address"},{"name":"role","type":"string","internalType":"string"},{"name":"status","type":"uint8","internalType":"enum SupplyChainTracker.UserStatus"}]}],"stateMutability":"view"},{"type":"function","name":"getUserStatus","inputs":[{"name":"_userAddress","type":"address","internalType":"address"}],"outputs":[{"name":"","type":"uint8","internalType":"enum SupplyChainTracker.UserStatus"}],"stateMutability":"view"},{"type":"function","name":"isUserApproved","inputs":[{"name":"_userAddress","type":"address","internalType":"address"}],"outputs":[{"name":"","type":"bool","internalType":"bool"}],"stateMutability":"view"},{"type":"function","name":"owner","inputs":[],"outputs":[{"name":"","type":"address","internalType":"address"}],"stateMutability":"view"},{"type":"function","name":"pause","inputs":[],"outputs":[],"stateMutability":"nonpayable"},{"type":"function","name":"paused","inputs":[],"outputs":[{"name":"","type":"bool","internalType":"bool"}],"stateMutability":"view"},{"type":"function","name":"pendingOwner","inputs":[],"outputs":[{"name":"","type":"address","internalType":"address"}],"stateMutability":"view"},{"type":"function","name":"pendingTransfersByAddress","inputs":[{"name":"","type":"address","internalType":"address"},{"name":"","type":"uint256","internalType":"uint256"}],"outputs":[{"name":"","type":"uint256","internalType":"uint256"}],"stateMutability":"view"},{"type":"function","name":"productTokenIds","inputs":[{"name":"","type":"uint256","internalType":"uint256"}],"outputs":[{"name":"","type":"uint256","internalType":"uint256"}],"stateMutability":"view"},{"type":"function","name":"productTokens","inputs":[{"name":"","type":"uint256","internalType":"uint256"}],"outputs":[{"name":"id","type":"uint256","internalType":"uint256"},{"name":"creator","type":"address","internalType":"address"},{"name":"metadata","type":"string","internalType":"string"},{"name":"parentId","type":"uint256","internalType":"uint256"},{"name":"timestamp","type":"uint256","internalType":"uint256"},{"name":"isActive","type":"bool","internalType":"bool"}],"stateMutability":"view"},{"type":"function","name":"registerAdmin","inputs":[{"name":"_adminAddress","type":"address","internalType":"address"}],"outputs":[{"name":"","type":"uint256","internalType":"uint256"}],"stateMutability":"nonpayable"},{"type":"function","name":"registerUser","inputs":[{"name":"_role","type":"string","internalType":"string"}],"outputs":[{"name":"","type":"uint256","internalType":"uint256"}],"stateMutability":"nonpayable"},{"type":"function","name":"rejectTransfer","inputs":[{"name":"_transferId","type":"uint256","internalType":"uint256"}],"outputs":[],"stateMutability":"nonpayable"},{"type":"function","name":"renounceOwnership","inputs":[],"outputs":[],"stateMutability":"nonpayable"},{"type":"function","name":"tokenTotalSupply","inputs":[{"name":"","type":"uint256","internalType":"uint256"}],"outputs":[{"name":"","type":"uint256","internalType":"uint256"}],"stateMutability":"view"},{"type":"function","name":"tokenTransactionHistory","inputs":[{"name":"","type":"uint256","internalType":"uint256"},{"name":"","type":"uint256","internalType":"uint256"}],"outputs":[{"name":"","type":"uint256","internalType":"uint256"}],"stateMutability":"view"},{"type":"function","name":"totalProductTokens","inputs":[],"outputs":[{"name":"","type":"uint256","internalType":"uint256"}],"stateMutability":"view"},{"type":"function","name":"totalTransfers","inputs":[],"outputs":[{"name":"","type":"uint256","internalType":"uint256"}],"stateMutability":"view"},{"type":"function","name":"totalUsers","inputs":[],"outputs":[{"name":"","type":"uint256","internalType":"uint256"}],"stateMutability":"view"},{"type":"function","name":"transferIds","inputs":[{"name":"","type":"uint256","internalType":"uint256"}],"outputs":[{"name":"","type":"uint256","internalType":"uint256"}],"stateMutability":"view"},{"type":"function","name":"transferOwnership","inputs":[{"name":"_newOwner","type":"address","internalType":"address"}],"outputs":[],"stateMutability":"nonpayable"},{"type":"function","name":"transfers","inputs":[{"name":"","type":"uint256","internalType":"uint256"}],"outputs":[{"name":"id","type":"uint256","internalType":"uint256"},{"name":"tokenId","type":"uint256","internalType":"uint256"},{"name":"from","type":"address","internalType":"address"},{"name":"to","type":"address","internalType":"address"},{"name":"amount","type":"uint256","internalType":"uint256"},{"name":"status","type":"uint8","internalType":"enum SupplyChainTracker.TransferStatus"},{"name":"requestTimestamp","type":"uint256","internalType":"uint256"},{"name":"responseTimestamp","type":"uint256","internalType":"uint256"}],"stateMutability":"view"},{"type":"function","name":"unpause","inputs":[],"outputs":[],"stateMutability":"nonpayable"},{"type":"function","name":"updateUserStatus","inputs":[{"name":"_userAddress","type":"address","internalType":"address"},{"name":"_newStatus","type":"uint8","internalType":"enum SupplyChainTracker.UserStatus"}],"outputs":[],"stateMutability":"nonpayable"},{"type":"function","name":"userAddresses","inputs":[{"name":"","type":"uint256","internalType":"uint256"}],"outputs":[{"name":"","type":"address","internalType":"address"}],"stateMutability":"view"},{"type":"function","name":"users","inputs":[{"name":"","type":"address","internalType":"address"}],"outputs":[{"name":"id","type":"uint256","internalType":"uint256"},{"name":"userAddress","type":"address","internalType":"address"},{"name":"role","type":"string","internalType":"string"},{"name":"status","type":"uint8","internalType":"enum SupplyChainTracker.UserStatus"}],"stateMutability":"view"},{"type":"function","name":"validRoles","inputs":[{"name":"","type":"string","internalType":"string"}],"outputs":[{"name":"","type":"bool","internalType":"bool"}],"stateMutability":"view"},{"type":"event","name":"OwnershipTransferStarted","inputs":[{"name":"previousOwner","type":"address","indexed":true,"internalType":"address"},{"name":"newOwner","type":"address","indexed":true,"internalType":"address"}],"anonymous":false},{"type":"event","name":"OwnershipTransferred","inputs":[{"name":"previousOwner","type":"address","indexed":true,"internalType":"address"},{"name":"newOwner","type":"address","indexed":true,"internalType":"address"}],"anonymous":false},{"type":"event","name":"Paused","inputs":[{"name":"account","type":"address","indexed":true,"internalType":"address"}],"anonymous":false},{"type":"event","name":"ProductTokenCreated","inputs":[{"name":"tokenId","type":"uint256","indexed":true,"internalType":"uint256"},{"name":"creator","type":"address","indexed":true,"internalType":"address"},{"name":"metadata","type":"string","indexed":false,"internalType":"string"},{"name":"parentId","type":"uint256","indexed":false,"internalType":"uint256"}],"anonymous":false},{"type":"event","name":"TransferAccepted","inputs":[{"name":"transferId","type":"uint256","indexed":true,"internalType":"uint256"},{"name":"tokenId","type":"uint256","indexed":true,"internalType":"uint256"},{"name":"from","type":"address","indexed":true,"internalType":"address"},{"name":"to","type":"address","indexed":false,"internalType":"address"},{"name":"amount","type":"uint256","indexed":false,"internalType":"uint256"}],"anonymous":false},{"type":"event","name":"TransferRejected","inputs":[{"name":"transferId","type":"uint256","indexed":true,"internalType":"uint256"},{"name":"tokenId","type":"uint256","indexed":true,"internalType":"uint256"},{"name":"from","type":"address","indexed":true,"internalType":"address"},{"name":"to","type":"address","indexed":false,"internalType":"address"},{"name":"amount","type":"uint256","indexed":false,"internalType":"uint256"}],"anonymous":false},{"type":"event","name":"TransferRequestCreated","inputs":[{"name":"transferId","type":"uint256","indexed":true,"internalType":"uint256"},{"name":"tokenId","type":"uint256","indexed":true,"internalType":"uint256"},{"name":"from","type":"address","indexed":true,"internalType":"address"},{"name":"to","type":"address","indexed":false,"internalType":"address"},{"name":"amount","type":"uint256","indexed":false,"internalType":"uint256"}],"anonymous":false},{"type":"event","name":"Unpaused","inputs":[{"name":"account","type":"address","indexed":true,"internalType":"address"}],"anonymous":false},{"type":"event","name":"UserRegistered","inputs":[{"name":"id","type":"uint256","indexed":true,"internalType":"uint256"},{"name":"userAddress","type":"address","indexed":true,"internalType":"address"},{"name":"role","type":"string","indexed":false,"internalType":"string"},{"name":"status","type":"uint8","indexed":false,"internalType":"enum SupplyChainTracker.UserStatus"}],"anonymous":false},{"type":"event","name":"UserStatusUpdated","inputs":[{"name":"id","type":"uint256","indexed":true,"internalType":"uint256"},{"name":"userAddress","type":"address","indexed":true,"internalType":"address"},{"name":"newStatus","type":"uint8","indexed":false,"internalType":"enum SupplyChainTracker.UserStatus"}],"anonymous":false}],"bytecode":{"object":"0x6080806040523460f7576028903360018060a01b03195f5416175f5560ff60a01b19600154166001555f6002555f6003555f60045567283937b23ab1b2b960c11b81526007600882015220600160ff19825416179055602760405166466163746f727960c81b815260078082015220600160ff198254161790556028604051672932ba30b4b632b960c11b81526007600882015220600160ff1982541617905560286040516721b7b739bab6b2b960c11b81526007600882015220600160ff1982541617905560256040516420b236b4b760d91b81526007600582015220600160ff198254161790556040516135a990816100fc8239f35b5f80fdfe6080806040526004361015610012575f80fd5b5f905f3560e01c90816224f69414612d95575080630aefa99714612d7857806310d1fe3c14612c7557806312effc3214612b1f578063132dfba3146128455780631e43c575146125855780631f320331146104c757806326ecb0871461252a578063274fae7c146123bf578063376f383d1461225c5780633bf477201461223e5780633f4ba83a1461219a57806341025e7b146121115780634f24598f14611111578063502c9bd5146120cd578063512de5d914612071578063529d6ccf146120435780635c975abb1461201d5780636468e3171461070c5780636f77926b14611f0f578063704f1b9414611c57578063715018a614611be557806372b393c314611717578063747f920c1461158657806379ba5097146114d25780637b731d85146114625780638446a1721461141a5780638456cb59146113aa5780638da5cb5b146113835780638f9d287e14611365578063931f07511461123a5780639377d711146111a75780639be572f6146110f3578063a87430ba14611116578063b07ea6e214611111578063bff1f9e1146110f3578063c16fe90714610f96578063c38c581314610d3a578063cadddbad1461082e578063cc55ae6914610736578063cc86baad1461070c578063d40dc870146106e8578063de4cbf8914610659578063e2842d79146105af578063e30c397814610586578063e8868e9f14610569578063ea0d5dcd1461050c578063ef57e2d2146104c7578063f20370c11461047e578063f2c77eb01461035b5763f2fde38b1461024e575f80fd5b3461035857602036600319011261035857610267612f61565b81546001600160a01b03169061027e33831461330f565b6001600160a01b0316908115610313578082146102ce57600180546001600160a01b031916831790557f38d16b8cac22d99fc7c124b9cd0de2d3fa1faef420bfe791d8c362d765e227008380a380f35b60405162461bcd60e51b815260206004820152601b60248201527f4e6577206f776e6572206d75737420626520646966666572656e7400000000006044820152606490fd5b60405162461bcd60e51b815260206004820152601960248201527f496e76616c6964206e6577206f776e65722061646472657373000000000000006044820152606490fd5b80fd5b5034610358576020366003190112610358576040906004358160a0845161038181612e49565b828152826020820152606086820152826060820152826080820152015280825260066020526103b483832054151561349c565b81526006602052206040516103c881612e49565b8154815260018201546001600160a01b0316602082019081526040519092906103ff816103f88160028601613049565b0382612e64565b604083019081526003820154916060840192835261046560ff6005600484015493608088019485520154169260a0860193151584526040519687966020885251602088015260018060a01b0390511660408701525160c0606087015260e0860190612fd3565b925160808501525160a084015251151560c08301520390f35b503461035857604036600319011261035857602435906004358152600c602052604081209081548310156103585760206104b88484612fbe565b90549060031b1c604051908152f35b50346103585760403660031901126103585760406104e3612f4b565b9160043581526008602052209060018060a01b03165f52602052602060405f2054604051908152f35b50346103585760203660031901126103585760209060ff906003906040906001600160a01b0361053a612f61565b168082526005865261055083832054151561338e565b815260058552200154166105676040518092612ff7565bf35b503461035857806003193601126103585760206040516128008152f35b50346103585780600319360112610358576001546040516001600160a01b039091168152602090f35b50346103585780600319360112610358576105d460018060a01b03825416331461330f565b60405180916020600d54928381520191600d82527fd7b6990105719101dabeb77144f2a3385c8033acd3af97e9423a695e81ad1eb5915b81811061063a576106368561062281870382612e64565b604051918291602083526020830190612eda565b0390f35b82546001600160a01b031684526020909301926001928301920161060b565b5034610358576020366003190112610358576040906004358152600660205220805460018060a01b036001830154169160405161069d816103f88160028601613049565b6003820154916106d260ff6005600484015493015416926040519687968752602087015260c0604087015260c0860190612fd3565b9260608501526080840152151560a08301520390f35b5034610358578060031936011261035857506040516001600160ff1b038152602090f35b50346103585760203660031901126103585760406020916004358152600983522054604051908152f35b50346103585760203660031901126103585761075260016130ca565b6004358152600c60205260408120906040518083602082955493848152019084526020842092845b81811061081557505061078f92500383612e64565b8151801561080f57816107f457606481101561080857805b6107b08161313e565b92805b8281106107d0576040516020808252819061063690820188612daf565b816107f457806107e26001928861317d565b516107ed828861317d565b52016107b3565b634e487b7160e01b82526011600452602482fd5b60646107a7565b816107a7565b845483526001948501948794506020909301920161077a565b50346103585761083d36612f16565b9192338152600560205260ff6003604083200154166004811015610d265760016108679114613261565b61087960ff60015460a01c1615613191565b6108848315156134e8565b6108976001600160ff1b03841115613534565b835115610ce157612800845111610ca85781610b56575b6108b96002546132dc565b92836002556040516108ca81612e49565b84815260208101903382526040810187815260608201868152608083019142835260a0840194600186528988526006602052604088209451855560018060a01b03905116600185019060018060a01b03166001600160601b0360a01b8254161790556002840190518051906001600160401b038211610b425761094d8354613011565b601f8111610afd575b50602090601f8311600114610a955760059695949392918a9183610a8a575b50508160011b915f199060031b1c19161790555b516003830155516004820155019051151560ff8019835416911617905583825260086020526040822060018060a01b0333165f5260205260405f206109cf828254613170565b905583825260096020526109e860408320918254613170565b9055600e5490600160401b821015610a7657507fd9ef815d6b9a43d2840f47ad6fec3377b6b3fb770b66c6782f417685212d60ea602094610a4e85610a36856001839701600e55600e612fbe565b90919082549060031b91821b915f19901b1916179055565b610a6360405191604083526040830190612fd3565b93868201528033940390a3604051908152f35b634e487b7160e01b81526041600452602490fd5b015190505f80610975565b838a52818a209190601f1984168b5b818110610ae5575091600193918560059a999897969410610acd575b505050811b019055610989565b01515f1960f88460031b161c191690555f8080610ac0565b92936020600181928786015181550195019301610aa4565b838a5260208a20601f840160051c81019160208510610b38575b601f0160051c01905b818110610b2d5750610956565b8a8155600101610b20565b9091508190610b17565b634e487b7160e01b89526041600452602489fd5b8181526006602052604081205415610c6357818152600660205260ff60056040832001541615610c1e57818152600860209081526040808320335f90815292529020548311610bcf5781815260086020526040812060018060a01b0333165f5260205260405f20610bc8848254613106565b90556108ae565b60405162461bcd60e51b815260206004820152602160248201527f496e73756666696369656e7420706172656e7420746f6b656e2062616c616e636044820152606560f81b6064820152608490fd5b60405162461bcd60e51b815260206004820152601a60248201527f506172656e7420746f6b656e206973206e6f74206163746976650000000000006044820152606490fd5b60405162461bcd60e51b815260206004820152601b60248201527f506172656e7420746f6b656e20646f6573206e6f7420657869737400000000006044820152606490fd5b60405162461bcd60e51b81526020600482015260116024820152704d6574616461746120746f6f206c6f6e6760781b6044820152606490fd5b60405162461bcd60e51b815260206004820152601860248201527f4d657461646174612063616e6e6f7420626520656d70747900000000000000006044820152606490fd5b634e487b7160e01b82526021600452602482fd5b503461035857602036600319011261035857610d54612f61565b610d6860018060a01b03835416331461330f565b6001600160a01b03811680835260056020526040832054610d8990156133d0565b610d946003546132dc565b9182600355604051610da581612dfe565b83815260208101838152610db761341c565b6040838101918252600160608501818152878a52600560205291892094518555925192840180546001600160a01b0319166001600160a01b03949094169390931790925551805160028401916001600160401b038211610b42578190610e1d8454613011565b601f8111610f46575b50602090601f8311600114610ee4578a92610ed9575b50508160011b915f199060031b1c19161790555b51906004821015610ec557602095610e988694610e937f96167b36edc953fbe4cbc87c522d066755dab854a4c17ee501641b0f283fb1f39560036080960161343f565b613457565b6040519060408252600560408301526420b236b4b760d91b606083015250600187820152a3604051908152f35b634e487b7160e01b86526021600452602486fd5b015190505f80610e3c565b848b52818b209250601f1984168b5b818110610f2e5750908460019594939210610f16575b505050811b019055610e50565b01515f1960f88460031b161c191690555f8080610f09565b92936020600181928786015181550195019301610ef3565b909150838a5260208a20601f840160051c81019160208510610f8c575b90601f859493920160051c01905b818110610f7e5750610e26565b8b8155849350600101610f71565b9091508190610f63565b5034610358576020366003190112610358576004358160e0604051610fba81612e2d565b8281528260208201528260408201528260608201528260808201528260a08201528260c08201520152808252600a602052610ffa604083205415156131d2565b8152600a602052604081206040519061101282612e2d565b805482526001810154906020830191825260018060a01b036002820154166040840190815260018060a01b03600383015416606085019081526004830154916080860192835260ff60058501541660a087019760038210156110df5750916110d1939188936101009952600760068701549660c08a0197885201549660e089019788526040519851895251602089015260018060a01b03905116604088015260018060a01b0390511660608701525160808601525160a0850190613004565b5160c08301525160e0820152f35b634e487b7160e01b81526021600452602490fd5b50346103585780600319360112610358576020600354604051908152f35b612f77565b5034610358576020366003190112610358576040906001600160a01b0361113b612f61565b168152600560205220805460018060a01b036001830154169161063661119c60ff60036040519461117a866111738160028501613049565b0387612e64565b0154169260405195869586526020860152608060408601526080850190612fd3565b916060840190612ff7565b5034610358576020366003190112610358576040610100916004358152600a6020522080549060018101549061122e60018060a01b0360028301541660018060a01b0360038401541660048401549060ff600586015416926007600687015496015496604051988952602089015260408801526060870152608086015260a0850190613004565b60c083015260e0820152f35b503461035857604036600319011261035857611254612f61565b6024359060048210156113615761127560018060a01b03845416331461330f565b6001600160a01b03168083526005602052604083205490919061129990151561338e565b818352600560205260ff600360408520015416600481101561134d5781146113155781835260056020526112d3816003604086200161343f565b81835260056020527f072083279fbff672c71f2d727a4380726cd2a679d64e4a3cfdc56c98b6af7bad60206040852054926113116040518092612ff7565ba380f35b60405162461bcd60e51b815260206004820152601060248201526f14dd185d1d5cc81d5b98da185b99d95960821b6044820152606490fd5b634e487b7160e01b84526021600452602484fd5b8280fd5b50346103585780600319360112610358576020600254604051908152f35b5034610358578060031936011261035857546040516001600160a01b039091168152602090f35b50346103585780600319360112610358576113cf60018060a01b03825416331461330f565b6001546113e260ff8260a01c1615613191565b60ff60a01b1916600160a01b17600155337f62e78cea01bee320cd4e420270b5ea74000d11b0c9f74754ebdbfc544b05a2588280a280f35b503461035857604036600319011261035857611434612f61565b6001600160a01b03168152600b60205260408120805460243592908310156103585760206104b88484612fbe565b50346103585760203660031901126103585760043590600e5482101561035857600e548210156114be57600e90527fbb7b4a454dc3493923482f07822329ed19e8244eff582cc204f8554c3620c3fd0154604051908152602090f35b634e487b7160e01b81526032600452602490fd5b50346103585780600319360112610358576001546001600160a01b03811690338290036115415782546001600160a01b0319808216841785559091166001556001600160a01b03167f8be0079c531659141344cd1fd0a4f28419497f9722a3daafe3b4186f6b6457e08380a380f35b60405162461bcd60e51b815260206004820152601d60248201527f4f6e6c792070656e64696e67206f776e65722063616e206163636570740000006044820152606490fd5b5034610358576060366003190112610358576115a0612f61565b60243591604435918215158061170c575b6115ba906130ca565b60018060a01b03168152600b602052604081206040518082602082945493848152019085526020852092855b8181106116f35750506115fb92500382612e64565b611605815161313e565b918094815b83518110156116715761161d818561317d565b518352600a60205260ff600560408520015416600381101561134d5715611647575b60010161160a565b95611669600191611658898761317d565b51611663828961317d565b526132dc565b96905061163f565b50929150928483105f146116eb578061168a8487613106565b10156116e6575061169b8285613106565b915b6116a68361313e565b935b8381106116be5760405180610636888883612de2565b806116d46116ce60019385613170565b8561317d565b516116df828861317d565b52016116a8565b61169b565b50829161169d565b84548352600194850194869450602090930192016115e6565b5060648311156115b1565b50346103585760603660031901126103585760043590611735612f4b565b9160443592338352600560205260ff600360408520015416600481101561134d5760016117629114613261565b61177460ff60015460a01c1615613191565b33835260056020526103f86117956002604086200160405192838092613049565b60208151910120916040926008602085516117b08782612e64565b828152016721b7b739bab6b2b960c11b81522014611ba15780845260066020526117de83852054151561349c565b808452600660205260ff600584862001541615611b5d576001600160a01b038216938415611b1957338514611ad5576118188615156134e8565b61182b6001600160ff1b03871115613534565b81815260086020908152848220335f9081529152849020548611611a9a5784815260056020528381205415611a5657848152600560205260ff60038583200154166004811015610d2657600103611a12576118876004546132dc565b9485600455845161189781612e2d565b86815260208082018581523388840190815260608401858152608085018c815260a086018881524260c0880190815260e088018a81528e8b52600a9097528c8a20975188559451600188015592516002870180546001600160a01b03199081166001600160a01b03938416179091559251600380890180549095169190921617909255516004860155905160058501918110156119fe5790600793929160ff8019835416911617905551600684015551910155828252600860205284822060018060a01b0333165f52602052845f20611971888254613106565b90558152600b602052611986858583206132ea565b600f5490600160401b821015610a7657507f28db5329d873cf19a1df1e9a7d7ed4748e11d22d885260bdd21ab1d56768ccf36119f56020976119d588610a36866001839801600f55600f612fbe565b86516001600160a01b039096168652602086015233949081906040820190565b0390a451908152f35b634e487b7160e01b87526021600452602487fd5b835162461bcd60e51b815260206004820152601d60248201527f44657374696e6174696f6e2075736572206e6f7420617070726f7665640000006044820152606490fd5b835162461bcd60e51b815260206004820152601f60248201527f44657374696e6174696f6e207573657220646f6573206e6f74206578697374006044820152606490fd5b835162461bcd60e51b8152602060048201526014602482015273496e73756666696369656e742062616c616e636560601b6044820152606490fd5b835162461bcd60e51b815260206004820152601b60248201527f43616e6e6f74207472616e7366657220746f20796f757273656c6600000000006044820152606490fd5b835162461bcd60e51b815260206004820152601b60248201527f496e76616c69642064657374696e6174696f6e206164647265737300000000006044820152606490fd5b825162461bcd60e51b815260206004820152601b60248201527f50726f6475637420746f6b656e206973206e6f742061637469766500000000006044820152606490fd5b825162461bcd60e51b815260206004820152601860248201527f436f6e73756d65722063616e6e6f74207472616e7366657200000000000000006044820152606490fd5b5034610358578060031936011261035857805481906001600160a01b03811690611c1033831461330f565b6001600160601b0360a01b1682556001600160601b0360a01b600154166001557f8be0079c531659141344cd1fd0a4f28419497f9722a3daafe3b4186f6b6457e08280a380f35b5034610358576020366003190112610358576004356001600160401b038111611f0b57611c88903690600401612e85565b3382526005602052611c9e6040832054156133d0565b604051611cc560ff835192602081818701958087835e8101600781520301902054166132a1565b81519020611cd161341c565b6020815191012014611ec657611ce86003546132dc565b9081600355604051611cf981612dfe565b8281523360208083018281526040808501868152606086018981529489526005909352872093518455516001840180546001600160a01b0319166001600160a01b039290921691909117905551805160028401916001600160401b038211611eb2578190611d678454613011565b601f8111611e62575b50602090601f8311600114611e00578992611df5575b50508160011b915f199060031b1c19161790555b51906004821015611de15760209492611dd8859360037f96167b36edc953fbe4cbc87c522d066755dab854a4c17ee501641b0f283fb1f3940161343f565b610a4e33613457565b634e487b7160e01b85526021600452602485fd5b015190505f80611d86565b848a52818a209250601f1984168a5b818110611e4a5750908460019594939210611e32575b505050811b019055611d9a565b01515f1960f88460031b161c191690555f8080611e25565b92936020600181928786015181550195019301611e0f565b90915083895260208920601f840160051c81019160208510611ea8575b90601f859493920160051c01905b818110611e9a5750611d70565b8a8155849350600101611e8d565b9091508190611e7f565b634e487b7160e01b88526041600452602488fd5b60405162461bcd60e51b815260206004820152601860248201527f43616e6e6f742072656769737465722061732041646d696e00000000000000006044820152606490fd5b5080fd5b503461035857602036600319011261035857611f29612f61565b816060604051611f3881612dfe565b828152826020820152816040820152015260018060a01b03168082526005602052611f686040832054151561338e565b81526005602052604081209060405190611f8182612dfe565b8254825260018301546001600160a01b031660208301908152604051909360ff90600390611fbd84611fb68160028501613049565b0385612e64565b60408601938452015416606084019260048210156110df5750610636916120119184526040519586956020875251602087015260018060a01b039051166040860152516080606086015260a0850190612fd3565b91516080840190612ff7565b5034610358578060031936011261035857602060ff60015460a01c166040519015158152f35b5034610358576020366003190112610358576020612067612062612f61565b61334c565b6040519015158152f35b50346103585760203660031901126103585760043590600f5482101561035857600f548210156114be57600f90527f8d1108e10bcb7c27dddfc02ed9d693a074039d026cf4ea4240b40f7d581ac8020154604051908152602090f35b50346103585760203660031901126103585760043590600d548210156103585760206120f883612f92565b905460405160039290921b1c6001600160a01b03168152f35b503461035857806003193601126103585760405180916020600e54928381520191600e82527fbb7b4a454dc3493923482f07822329ed19e8244eff582cc204f8554c3620c3fd915b818110612184576106368561217081870382612e64565b604051918291602083526020830190612daf565b8254845260209093019260019283019201612159565b50346103585780600319360112610358576121bf60018060a01b03825416331461330f565b60015460ff8160a01c16156122005760ff60a01b1916600155337f5db9ee0a495bf2e6ff9c91a7834c1ba4fdd244a5e8aa4e537bd38aeae4b073aa8280a280f35b60405162461bcd60e51b815260206004820152601660248201527510dbdb9d1c9858dd081a5cc81b9bdd081c185d5cd95960521b6044820152606490fd5b50346103585780600319360112610358576020600454604051908152f35b503461035857602036600319011261035857612276612f61565b61228060016130ca565b60018060a01b03168152600b60205260408120906040518083602082955493848152019084526020842092845b8181106123a65750506122c292500383612e64565b6122cc825161313e565b8192825b8151811015612331576122e3818361317d565b518452600a60205260ff6005604086200154166003811015611de1571561230d575b6001016122d0565b9361232960019161231e878561317d565b51611663828761317d565b949050612305565b509092905080156123a057816107f457606481101561239957805b6123558161313e565b92805b828110612375576040516020808252819061063690820188612daf565b816107f457806123876001928861317d565b51612392828861317d565b5201612358565b606461234c565b8161234c565b84548352600194850194879450602090930192016122ad565b5034610358576020366003190112610358576004356123e660ff60015460a01c1615613191565b808252600a602052604082206123fe815415156131d2565b6003810180549092906001600160a01b031633036124e5576005820160ff8154166003811015610ec557612432901561321e565b805460ff191660019081179091554260078401556004830180549184018054875260086020908152604080892088546001600160a01b03165f9081529252902080547fe6fedc71d59ee582818fd839c375b9bb46687d91d725e5fa247119831b888a3e9461249f91613170565b905580548752600c6020526124b784604089206132ea565b546002949094015494549054604080516001600160a01b03938416815260208101929092529190951694a480f35b60405162461bcd60e51b815260206004820152601b60248201527f4f6e6c792064657374696e6174696f6e2063616e2061636365707400000000006044820152606490fd5b503461035857602036600319011261035857600435906001600160401b03821161035857602060ff81806125613660048801612e85565b604051928184925191829101835e8101600781520301902054166040519015158152f35b50346103585761259436612f16565b91338452600560205260ff6003604086200154166004811015611de15760016125bd9114613261565b604051936125e560ff83519660208181870199808b835e8101600781520301902054166132a1565b8315158061283a575b6125f7906130ca565b808194600d54955b86811061278657508185101561277e578061261a8684613106565b1015612779575061262b8482613106565b925b61263684613127565b926126446040519485612e64565b848452601f1961265386613127565b0136602086013780928195825b89811080612770575b1561274d5761267781612f92565b905460039190911b1c6001600160a01b031680855260056020526040852054151580612728575b806126f5575b6126b8575b506126b3906132dc565b612660565b8989929910156126d7575b506126d06126b3916132dc565b97906126a9565b6126ed876126d0926116636126b3959a8c61317d565b9691506126c3565b5080855260056020526103f86127176002604088200160405192838092613049565b6020815191012086518d20146126a4565b50808552600560205260ff6003604087200154166004811015610ec55760011461269e565b6127668784604051928392604084526040840190612eda565b9060208301520390f35b50818610612669565b61262b565b50819261262d565b61278f81612f92565b905460039190911b1c6001600160a01b03168085526005602052604085205415159081612813575b816127df575b506127cb575b6001016125ff565b916127d76001916132dc565b9290506127c3565b9050845260056020526103f86128016002604087200160405192838092613049565b6020815191012085518920145f6127bd565b8091508552600560205260ff6003604087200154166004811015610ec557600114906127b7565b5060648411156125ee565b5034612b1b576020366003190112612b1b576004356001600160401b038111612b1b57612876903690600401612e85565b90335f52600560205260ff600360405f200154166004811015612b0757600161289f9114613261565b335f52600560205260ff600360405f200154166004811015612b075760016128c79114613261565b604051916128ef60ff825194602081818601978089835e8101600781520301902054166132a1565b6128f960016130ca565b5f5f92600d54935b848110612a5257508115612a4b57505f6064821015612a4457815b915b61292783613127565b916129356040519384612e64565b838352601f1961294485613127565b0136602085013780918194825b88811080612a3b575b15612a255761296881612f92565b905460039190911b1c6001600160a01b031680855260056020526040852054151580612a00575b806129cd575b6129a9575b506129a4906132dc565b612951565b6129c0866129c6926116636129a4959b998b61317d565b956132dc565b969061299a565b5080855260056020526103f86129ef6002604088200160405192838092613049565b6020815191012089518c2014612995565b50808552600560205260ff6003604087200154166004811015610ec55760011461298f565b6040516020808252819061063690820189612eda565b5081851061295a565b606461291c565b5f9161291e565b612a5b81612f92565b905460039190911b1c6001600160a01b03165f8181526005602052604090205415159081612ae0575b81612aac575b50612a98575b600101612901565b91612aa46001916132dc565b929050612a90565b90505f5260056020526103f8612ace600260405f200160405192838092613049565b6020815191012084518720145f612a8a565b8091505f52600560205260ff600360405f200154166004811015612b075760011490612a84565b634e487b7160e01b5f52602160045260245ffd5b5f80fd5b34612b1b576020366003190112612b1b57600435612b4560ff60015460a01c1615613191565b805f52600a60205260405f20612b5d815415156131d2565b6003810180549092906001600160a01b03163303612c30576005820160ff8154166003811015612b0757612b91901561321e565b600260ff198254161790554260078301557f85ccd7cb88541c61058a6b1d48902bb75d5a05219a518779690b420cdcc62d44600483018054600185019081545f526008602052600260405f2096019560018060a01b0387541660018060a01b03165f52602052612c0660405f20918254613170565b905554935494549054604080516001600160a01b03938416815260208101929092529190951694a4005b60405162461bcd60e51b815260206004820152601b60248201527f4f6e6c792064657374696e6174696f6e2063616e2072656a65637400000000006044820152606490fd5b34612b1b576060366003190112612b1b5760443560243581151580612d6d575b612c9e906130ca565b6004355f52600c60205260405f20604051808260208294549384815201905f5260205f20925f5b818110612d54575050612cda92500382612e64565b80519283831015612d4c5780612cf08486613106565b1015612d475750612d018284613106565b905b612d0c8261313e565b925f5b838110612d255760405180610636888883612de2565b80612d356116ce60019385613170565b51612d40828861317d565b5201612d0f565b612d01565b505f90612d03565b8454835260019485019486945060209093019201612cc5565b506064821115612c95565b34612b1b575f366003190112612b1b576020600454604051908152f35b34612b1b575f366003190112612b1b576020906002548152f35b90602080835192838152019201905f5b818110612dcc5750505090565b8251845260209384019390920191600101612dbf565b929190612df9602091604086526040860190612daf565b930152565b608081019081106001600160401b03821117612e1957604052565b634e487b7160e01b5f52604160045260245ffd5b61010081019081106001600160401b03821117612e1957604052565b60c081019081106001600160401b03821117612e1957604052565b90601f801991011681019081106001600160401b03821117612e1957604052565b81601f82011215612b1b578035906001600160401b038211612e195760405192612eb9601f8401601f191660200185612e64565b82845260208383010111612b1b57815f926020809301838601378301015290565b90602080835192838152019201905f5b818110612ef75750505090565b82516001600160a01b0316845260209384019390920191600101612eea565b6060600319820112612b1b57600435906001600160401b038211612b1b57612f4091600401612e85565b906024359060443590565b602435906001600160a01b0382168203612b1b57565b600435906001600160a01b0382168203612b1b57565b34612b1b575f366003190112612b1b57602060405160648152f35b600d54811015612faa57600d5f5260205f2001905f90565b634e487b7160e01b5f52603260045260245ffd5b8054821015612faa575f5260205f2001905f90565b805180835260209291819084018484015e5f828201840152601f01601f1916010190565b906004821015612b075752565b906003821015612b075752565b90600182811c9216801561303f575b602083101461302b57565b634e487b7160e01b5f52602260045260245ffd5b91607f1691613020565b5f929181549161305883613011565b80835292600181169081156130ad575060011461307457505050565b5f9081526020812093945091925b838310613093575060209250010190565b600181602092949394548385870101520191019190613082565b915050602093945060ff929192191683830152151560051b010190565b156130d157565b60405162461bcd60e51b815260206004820152600d60248201526c125b9d985b1a59081b1a5b5a5d609a1b6044820152606490fd5b9190820391821161311357565b634e487b7160e01b5f52601160045260245ffd5b6001600160401b038111612e195760051b60200190565b9061314882613127565b6131556040519182612e64565b8281528092613166601f1991613127565b0190602036910137565b9190820180921161311357565b8051821015612faa5760209160051b010190565b1561319857565b60405162461bcd60e51b815260206004820152601260248201527110dbdb9d1c9858dd081a5cc81c185d5cd95960721b6044820152606490fd5b156131d957565b60405162461bcd60e51b815260206004820152601760248201527f5472616e7366657220646f6573206e6f742065786973740000000000000000006044820152606490fd5b1561322557565b60405162461bcd60e51b81526020600482015260146024820152735472616e73666572206e6f742070656e64696e6760601b6044820152606490fd5b1561326857565b60405162461bcd60e51b8152602060048201526011602482015270155cd95c881b9bdd08185c1c1c9bdd9959607a1b6044820152606490fd5b156132a857565b60405162461bcd60e51b815260206004820152600c60248201526b496e76616c696420726f6c6560a01b6044820152606490fd5b5f1981146131135760010190565b90815491600160401b831015612e195782610a3691600161330d95018155612fbe565b565b1561331657565b60405162461bcd60e51b815260206004820152600e60248201526d139bdd08185d5d1a1bdc9a5e995960921b6044820152606490fd5b6001600160a01b03165f8181526005602052604090205415613389575f52600560205260ff600360405f200154166004811015612b075760011490565b505f90565b1561339557565b60405162461bcd60e51b8152602060048201526013602482015272155cd95c88191bd95cc81b9bdd08195e1a5cdd606a1b6044820152606490fd5b156133d757565b60405162461bcd60e51b815260206004820152601760248201527f5573657220616c726561647920726567697374657265640000000000000000006044820152606490fd5b6040519061342b604083612e64565b600582526420b236b4b760d91b6020830152565b906004811015612b075760ff80198354169116179055565b600d54600160401b811015612e19578060016134789201600d55600d612fbe565b81546001600160a01b0393841660039290921b91821b9390911b1916919091179055565b156134a357565b60405162461bcd60e51b815260206004820152601c60248201527f50726f6475637420746f6b656e20646f6573206e6f74206578697374000000006044820152606490fd5b156134ef57565b60405162461bcd60e51b815260206004820152601d60248201527f416d6f756e74206d7573742062652067726561746572207468616e20300000006044820152606490fd5b1561353b57565b60405162461bcd60e51b815260206004820152601060248201526f416d6f756e7420746f6f206c6172676560801b6044820152606490fdfea2646970667358221220917de1f3e9dd51fdca6d947d204716724aa76d10dfa684efb39125e14f8d70d664736f6c634300081e0033","linkReferences":{}},"methodIdentifiers":{"MAX_AMOUNT()":"d40dc870","MAX_METADATA_LENGTH()":"e8868e9f","MAX_TRANSFERS_PER_QUERY()":"4f24598f","MAX_USERS_PER_QUERY()":"b07ea6e2","acceptOwnership()":"79ba5097","acceptTransfer(uint256)":"274fae7c","balances(uint256,address)":"1f320331","createProductToken(string,uint256,uint256)":"cadddbad","createTransferRequest(uint256,address,uint256)":"72b393c3","getAllProductTokenIds()":"41025e7b","getAllUsers()":"e2842d79","getApprovedUsersByRole(string)":"132dfba3","getApprovedUsersByRole(string,uint256,uint256)":"1e43c575","getPendingTransfers(address)":"376f383d","getPendingTransfers(address,uint256,uint256)":"747f920c","getProductToken(uint256)":"f2c77eb0","getTokenBalance(uint256,address)":"ef57e2d2","getTokenTotalSupply(uint256)":"cc86baad","getTokenTransactionHistory(uint256)":"cc55ae69","getTokenTransactionHistory(uint256,uint256,uint256)":"10d1fe3c","getTotalProductTokens()":"0024f694","getTotalTransfers()":"0aefa997","getTotalUsers()":"9be572f6","getTransfer(uint256)":"c16fe907","getUser(address)":"6f77926b","getUserStatus(address)":"ea0d5dcd","isUserApproved(address)":"529d6ccf","owner()":"8da5cb5b","pause()":"8456cb59","paused()":"5c975abb","pendingOwner()":"e30c3978","pendingTransfersByAddress(address,uint256)":"8446a172","productTokenIds(uint256)":"7b731d85","productTokens(uint256)":"de4cbf89","registerAdmin(address)":"c38c5813","registerUser(string)":"704f1b94","rejectTransfer(uint256)":"12effc32","renounceOwnership()":"715018a6","tokenTotalSupply(uint256)":"6468e317","tokenTransactionHistory(uint256,uint256)":"f20370c1","totalProductTokens()":"8f9d287e","totalTransfers()":"3bf47720","totalUsers()":"bff1f9e1","transferIds(uint256)":"512de5d9","transferOwnership(address)":"f2fde38b","transfers(uint256)":"9377d711","unpause()":"3f4ba83a","updateUserStatus(address,uint8)":"931f0751","userAddresses(uint256)":"502c9bd5","users(address)":"a87430ba","validRoles(string)":"26ecb087"},"id":21}