{"abi":[{"type":"constructor","inputs":[],"stateMutability":"nonpayable"},{"type":"function","name":"deactivateSupply","inputs":[{"name":"_id","type":"uint256","internalType":"uint256"}],"outputs":[],"stateMutability":"nonpayable"},{"type":"function","name":"getAllSupplyIds","inputs":[],"outputs":[{"name":"","type":"uint256[]","internalType":"uint256[]"}],"stateMutability":"view"},{"type":"function","name":"getSupply","inputs":[{"name":"_id","type":"uint256","internalType":"uint256"}],"outputs":[{"name":"","type":"tuple","internalType":"struct SupplyChainTracker.SupplyItem","components":[{"name":"id","type":"uint256","internalType":"uint256"},{"name":"name","type":"string","internalType":"string"},{"name":"location","type":"string","internalType":"string"},{"name":"timestamp","type":"uint256","internalType":"uint256"},{"name":"registeredBy","type":"address","internalType":"address"},{"name":"isActive","type":"bool","internalType":"bool"}]}],"stateMutability":"view"},{"type":"function","name":"getTotalSupplies","inputs":[],"outputs":[{"name":"","type":"uint256","internalType":"uint256"}],"stateMutability":"view"},{"type":"function","name":"owner","inputs":[],"outputs":[{"name":"","type":"address","internalType":"address"}],"stateMutability":"view"},{"type":"function","name":"registerSupply","inputs":[{"name":"_name","type":"string","internalType":"string"},{"name":"_location","type":"string","internalType":"string"}],"outputs":[{"name":"","type":"uint256","internalType":"uint256"}],"stateMutability":"nonpayable"},{"type":"function","name":"supplies","inputs":[{"name":"","type":"uint256","internalType":"uint256"}],"outputs":[{"name":"id","type":"uint256","internalType":"uint256"},{"name":"name","type":"string","internalType":"string"},{"name":"location","type":"string","internalType":"string"},{"name":"timestamp","type":"uint256","internalType":"uint256"},{"name":"registeredBy","type":"address","internalType":"address"},{"name":"isActive","type":"bool","internalType":"bool"}],"stateMutability":"view"},{"type":"function","name":"supplyIds","inputs":[{"name":"","type":"uint256","internalType":"uint256"}],"outputs":[{"name":"","type":"uint256","internalType":"uint256"}],"stateMutability":"view"},{"type":"function","name":"totalSupplies","inputs":[],"outputs":[{"name":"","type":"uint256","internalType":"uint256"}],"stateMutability":"view"},{"type":"function","name":"updateSupplyLocation","inputs":[{"name":"_id","type":"uint256","internalType":"uint256"},{"name":"_newLocation","type":"string","internalType":"string"}],"outputs":[],"stateMutability":"nonpayable"},{"type":"event","name":"SupplyDeactivated","inputs":[{"name":"id","type":"uint256","indexed":true,"internalType":"uint256"}],"anonymous":false},{"type":"event","name":"SupplyRegistered","inputs":[{"name":"id","type":"uint256","indexed":true,"internalType":"uint256"},{"name":"name","type":"string","indexed":false,"internalType":"string"},{"name":"registeredBy","type":"address","indexed":true,"internalType":"address"}],"anonymous":false},{"type":"event","name":"SupplyUpdated","inputs":[{"name":"id","type":"uint256","indexed":true,"internalType":"uint256"},{"name":"newLocation","type":"string","indexed":false,"internalType":"string"}],"anonymous":false}],"bytecode":{"object":"0x6080604052348015600e575f5ffd5b50335f5f6101000a81548173ffffffffffffffffffffffffffffffffffffffff021916908373ffffffffffffffffffffffffffffffffffffffff1602179055505f6001819055506114f6806100625f395ff3fe608060405234801561000f575f5ffd5b506004361061009c575f3560e01c8063a6d2136611610064578063a6d213661461015d578063c1ff7e671461017b578063d068cdc514610197578063f77ee79d146101b5578063f8f91a2e146101e55761009c565b806326f1a1fd146100a057806354bcf4b4146100d55780638da5cb5b146100f157806390c1db651461010f578063a386e8d61461013f575b5f5ffd5b6100ba60048036038101906100b59190610aa0565b610215565b6040516100cc96959493929190610ba3565b60405180910390f35b6100ef60048036038101906100ea9190610d3c565b610385565b005b6100f9610499565b6040516101069190610d96565b60405180910390f35b61012960048036038101906101249190610aa0565b6104bd565b6040516101369190610daf565b60405180910390f35b6101476104dd565b6040516101549190610daf565b60405180910390f35b6101656104e6565b6040516101729190610e7f565b60405180910390f35b61019560048036038101906101909190610aa0565b61053c565b005b61019f61064e565b6040516101ac9190610daf565b60405180910390f35b6101cf60048036038101906101ca9190610aa0565b610654565b6040516101dc9190610f92565b60405180910390f35b6101ff60048036038101906101fa9190610fb2565b610877565b60405161020c9190610daf565b60405180910390f35b6002602052805f5260405f205f91509050805f01549080600101805461023a90611055565b80601f016020809104026020016040519081016040528092919081815260200182805461026690611055565b80156102b15780601f10610288576101008083540402835291602001916102b1565b820191905f5260205f20905b81548152906001019060200180831161029457829003601f168201915b5050505050908060020180546102c690611055565b80601f01602080910402602001604051908101604052809291908181526020018280546102f290611055565b801561033d5780601f106103145761010080835404028352916020019161033d565b820191905f5260205f20905b81548152906001019060200180831161032057829003601f168201915b505050505090806003015490806004015f9054906101000a900473ffffffffffffffffffffffffffffffffffffffff16908060040160149054906101000a900460ff16905086565b5f60025f8481526020019081526020015f205f0154036103da576040517f08c379a00000000000000000000000000000000000000000000000000000000081526004016103d1906110cf565b60405180910390fd5b60025f8381526020019081526020015f2060040160149054906101000a900460ff1661043b576040517f08c379a000000000000000000000000000000000000000000000000000000000815260040161043290611137565b60405180910390fd5b8060025f8481526020019081526020015f20600201908161045c91906112f5565b50817f0e505a5960b1166a7e7198c7b124fe01022babf8c8d10a2b1feb0cbd0d3f34888260405161048d91906113c4565b60405180910390a25050565b5f5f9054906101000a900473ffffffffffffffffffffffffffffffffffffffff1681565b600381815481106104cc575f80fd5b905f5260205f20015f915090505481565b5f600154905090565b6060600380548060200260200160405190810160405280929190818152602001828054801561053257602002820191905f5260205f20905b81548152602001906001019080831161051e575b5050505050905090565b5f60025f8381526020019081526020015f205f015403610591576040517f08c379a0000000000000000000000000000000000000000000000000000000008152600401610588906110cf565b60405180910390fd5b60025f8281526020019081526020015f2060040160149054906101000a900460ff166105f2576040517f08c379a00000000000000000000000000000000000000000000000000000000081526004016105e99061142e565b60405180910390fd5b5f60025f8381526020019081526020015f2060040160146101000a81548160ff021916908315150217905550807fbed13655d819111546f279bd5119ee715af450b86a5331382793c3ff17f0196560405160405180910390a250565b60015481565b61065c610a12565b5f60025f8481526020019081526020015f205f0154036106b1576040517f08c379a00000000000000000000000000000000000000000000000000000000081526004016106a8906110cf565b60405180910390fd5b60025f8381526020019081526020015f206040518060c00160405290815f82015481526020016001820180546106e690611055565b80601f016020809104026020016040519081016040528092919081815260200182805461071290611055565b801561075d5780601f106107345761010080835404028352916020019161075d565b820191905f5260205f20905b81548152906001019060200180831161074057829003601f168201915b5050505050815260200160028201805461077690611055565b80601f01602080910402602001604051908101604052809291908181526020018280546107a290611055565b80156107ed5780601f106107c4576101008083540402835291602001916107ed565b820191905f5260205f20905b8154815290600101906020018083116107d057829003601f168201915b5050505050815260200160038201548152602001600482015f9054906101000a900473ffffffffffffffffffffffffffffffffffffffff1673ffffffffffffffffffffffffffffffffffffffff1673ffffffffffffffffffffffffffffffffffffffff1681526020016004820160149054906101000a900460ff1615151515815250509050919050565b5f60015f81548092919061088a90611479565b91905055505f60015490506040518060c001604052808281526020018581526020018481526020014281526020013373ffffffffffffffffffffffffffffffffffffffff1681526020016001151581525060025f8381526020019081526020015f205f820151815f0155602082015181600101908161090991906112f5565b50604082015181600201908161091f91906112f5565b50606082015181600301556080820151816004015f6101000a81548173ffffffffffffffffffffffffffffffffffffffff021916908373ffffffffffffffffffffffffffffffffffffffff16021790555060a08201518160040160146101000a81548160ff021916908315150217905550905050600381908060018154018082558091505060019003905f5260205f20015f90919091909150553373ffffffffffffffffffffffffffffffffffffffff16817f6c7d30112cd55bc328a0003a60c2f09f83a42a783c98007b409c6e99b41ae78e86604051610a0091906113c4565b60405180910390a38091505092915050565b6040518060c001604052805f815260200160608152602001606081526020015f81526020015f73ffffffffffffffffffffffffffffffffffffffff1681526020015f151581525090565b5f604051905090565b5f5ffd5b5f5ffd5b5f819050919050565b610a7f81610a6d565b8114610a89575f5ffd5b50565b5f81359050610a9a81610a76565b92915050565b5f60208284031215610ab557610ab4610a65565b5b5f610ac284828501610a8c565b91505092915050565b610ad481610a6d565b82525050565b5f81519050919050565b5f82825260208201905092915050565b8281835e5f83830152505050565b5f601f19601f8301169050919050565b5f610b1c82610ada565b610b268185610ae4565b9350610b36818560208601610af4565b610b3f81610b02565b840191505092915050565b5f73ffffffffffffffffffffffffffffffffffffffff82169050919050565b5f610b7382610b4a565b9050919050565b610b8381610b69565b82525050565b5f8115159050919050565b610b9d81610b89565b82525050565b5f60c082019050610bb65f830189610acb565b8181036020830152610bc88188610b12565b90508181036040830152610bdc8187610b12565b9050610beb6060830186610acb565b610bf86080830185610b7a565b610c0560a0830184610b94565b979650505050505050565b5f5ffd5b5f5ffd5b7f4e487b71000000000000000000000000000000000000000000000000000000005f52604160045260245ffd5b610c4e82610b02565b810181811067ffffffffffffffff82111715610c6d57610c6c610c18565b5b80604052505050565b5f610c7f610a5c565b9050610c8b8282610c45565b919050565b5f67ffffffffffffffff821115610caa57610ca9610c18565b5b610cb382610b02565b9050602081019050919050565b828183375f83830152505050565b5f610ce0610cdb84610c90565b610c76565b905082815260208101848484011115610cfc57610cfb610c14565b5b610d07848285610cc0565b509392505050565b5f82601f830112610d2357610d22610c10565b5b8135610d33848260208601610cce565b91505092915050565b5f5f60408385031215610d5257610d51610a65565b5b5f610d5f85828601610a8c565b925050602083013567ffffffffffffffff811115610d8057610d7f610a69565b5b610d8c85828601610d0f565b9150509250929050565b5f602082019050610da95f830184610b7a565b92915050565b5f602082019050610dc25f830184610acb565b92915050565b5f81519050919050565b5f82825260208201905092915050565b5f819050602082019050919050565b610dfa81610a6d565b82525050565b5f610e0b8383610df1565b60208301905092915050565b5f602082019050919050565b5f610e2d82610dc8565b610e378185610dd2565b9350610e4283610de2565b805f5b83811015610e72578151610e598882610e00565b9750610e6483610e17565b925050600181019050610e45565b5085935050505092915050565b5f6020820190508181035f830152610e978184610e23565b905092915050565b5f82825260208201905092915050565b5f610eb982610ada565b610ec38185610e9f565b9350610ed3818560208601610af4565b610edc81610b02565b840191505092915050565b610ef081610b69565b82525050565b610eff81610b89565b82525050565b5f60c083015f830151610f1a5f860182610df1565b5060208301518482036020860152610f328282610eaf565b91505060408301518482036040860152610f4c8282610eaf565b9150506060830151610f616060860182610df1565b506080830151610f746080860182610ee7565b5060a0830151610f8760a0860182610ef6565b508091505092915050565b5f6020820190508181035f830152610faa8184610f05565b905092915050565b5f5f60408385031215610fc857610fc7610a65565b5b5f83013567ffffffffffffffff811115610fe557610fe4610a69565b5b610ff185828601610d0f565b925050602083013567ffffffffffffffff81111561101257611011610a69565b5b61101e85828601610d0f565b9150509250929050565b7f4e487b71000000000000000000000000000000000000000000000000000000005f52602260045260245ffd5b5f600282049050600182168061106c57607f821691505b60208210810361107f5761107e611028565b5b50919050565b7f537570706c7920646f6573206e6f7420657869737400000000000000000000005f82015250565b5f6110b9601583610ae4565b91506110c482611085565b602082019050919050565b5f6020820190508181035f8301526110e6816110ad565b9050919050565b7f537570706c79206973206e6f74206163746976650000000000000000000000005f82015250565b5f611121601483610ae4565b915061112c826110ed565b602082019050919050565b5f6020820190508181035f83015261114e81611115565b9050919050565b5f819050815f5260205f209050919050565b5f6020601f8301049050919050565b5f82821b905092915050565b5f600883026111b17fffffffffffffffffffffffffffffffffffffffffffffffffffffffffffffffff82611176565b6111bb8683611176565b95508019841693508086168417925050509392505050565b5f819050919050565b5f6111f66111f16111ec84610a6d565b6111d3565b610a6d565b9050919050565b5f819050919050565b61120f836111dc565b61122361121b826111fd565b848454611182565b825550505050565b5f5f905090565b61123a61122b565b611245818484611206565b505050565b5b818110156112685761125d5f82611232565b60018101905061124b565b5050565b601f8211156112ad5761127e81611155565b61128784611167565b81016020851015611296578190505b6112aa6112a285611167565b83018261124a565b50505b505050565b5f82821c905092915050565b5f6112cd5f19846008026112b2565b1980831691505092915050565b5f6112e583836112be565b9150826002028217905092915050565b6112fe82610ada565b67ffffffffffffffff81111561131757611316610c18565b5b6113218254611055565b61132c82828561126c565b5f60209050601f83116001811461135d575f841561134b578287015190505b61135585826112da565b8655506113bc565b601f19841661136b86611155565b5f5b828110156113925784890151825560018201915060208501945060208101905061136d565b868310156113af57848901516113ab601f8916826112be565b8355505b6001600288020188555050505b505050505050565b5f6020820190508181035f8301526113dc8184610b12565b905092915050565b7f537570706c7920697320616c726561647920696e6163746976650000000000005f82015250565b5f611418601a83610ae4565b9150611423826113e4565b602082019050919050565b5f6020820190508181035f8301526114458161140c565b9050919050565b7f4e487b71000000000000000000000000000000000000000000000000000000005f52601160045260245ffd5b5f61148382610a6d565b91507fffffffffffffffffffffffffffffffffffffffffffffffffffffffffffffffff82036114b5576114b461144c565b5b60018201905091905056fea26469706673582212206caa741425410f169afcdab3ddffdb03b866fbb3350ad5210738e782186c520164736f6c634300081e0033","linkReferences":{}},"methodIdentifiers":{"deactivateSupply(uint256)":"c1ff7e67","getAllSupplyIds()":"a6d21366","getSupply(uint256)":"f77ee79d","getTotalSupplies()":"a386e8d6","owner()":"8da5cb5b","registerSupply(string,string)":"f8f91a2e","supplies(uint256)":"26f1a1fd","supplyIds(uint256)":"90c1db65","totalSupplies()":"d068cdc5","updateSupplyLocation(uint256,string)":"54bcf4b4"},"id":21}